:020000040800F2
:1000000080060020C1010008BB1D0008511B00082C
:10001000B91D0008CD020008B1250008000000004D
:10002000000000000000000000000000BF1D0008EC
:10003000E902000800000000BD1D0008C11D000805
:10004000DB010008DB010008DB010008DB01000820
:10005000DB010008DB010008DB010008DB01000810
:10006000DB010008DB010008DB010008DB01000800
:10007000DB010008DB010008DB010008DB010008F0
:10008000DB010008DB010008DB010008DD020008DD
:10009000D1020008DB010008DB010008DB010008D9
:1000A000DB010008DB010008DB010008DB010008C0
:1000B000DB010008DB010008DB010008DB010008B0
:1000C000DB010008DB010008DB010008DB010008A0
:1000D000DB010008DB010008DB010008DB01000890
:1000E000DB010008DB010008DB010008DB01000880
:1000F000DB010008DB010008DB010008DB01000870
:10010000DB010008DB010008DB010008DB0100085F
:10011000DB010008DB010008DB010008DB0100084F
:10012000DB010008DB010008DB010008DB0100083F
:10013000DB010008DB010008DB010008DB0100082F
:10014000DB010008DB010008DB010008DB0100081F
:10015000DB010008DB010008DB010008A525000821
:10016000DB010008DB010008DB010008DB010008FF
:10017000DB010008DB010008DB01000800000000D3
:10018000DB010008DB010008DB010008DB010008DF
:10019000DB010008DB010008DB010008DB010008CF
:1001A0000000000000000000DB010008DFF80CD0B8
:1001B00000F07AF8004800470D260008800600206D
:1001C0000648804706480047FEE7FEE7FEE7FEE7F1
:1001D000FEE7FEE7FEE7FEE7FEE7FEE7491E000852
:1001E000AD0100082DE9F05F0546002092469B46D0
:1001F00088460646814640241BE02846414647463D
:10020000224600F041F853465A46C01A914110D395
:1002100011461846224600F028F82D1A67EB01080F
:100220004F4622460120002100F01FF817EB00097D
:100230004E41201EA4F10104DFDC484631462A4627
:100240004346BDE8F09FD2B201E000F8012B491E01
:10025000FBD270470022F6E710B513460A46044663
:100260001946FFF7F0FF204610BD202A04DB203A94
:1002700000FA02F1002070479140C2F1200320FAF9
:1002800003F3194390407047202A04DB203A21FAF7
:1002900002F00021704721FA02F3D040C2F120029F
:1002A0009140084319467047064C074D06E0E06848
:1002B00040F0010394E8070098471034AC42F6D3AD
:1002C000FFF778FF98280008B8280008FEE700002C
:1002D000014800F0F1B9000084010020014800F05D
:1002E000EBB90000840100207047704790F820208F
:1002F000012A09D090F82020022A05D0416A41F451
:1003000080214162012070470068426911434161C8
:100310000020704770B490F820C0BCF1010F0BD0E2
:1003200090F820C0BCF1020F06D0416A41F4802150
:10033000416270BC01207047D0F800C0DCF8084072
:1003400014F0806F09D1DCF8084014F0006F04D17C
:10035000DCF8084014F0805F57D0DCF808C0CCF31C
:10036000016C012404FA0CF41C608B684FF4C07417
:100370009BB1CD6804EB0C162B434D6843EAC503D3
:100380000568AB514FF4C273066803EB0C130D699B
:10039000F550097D012909D00DE00D88CB6804EBEB
:1003A0000C1643EA45530568AB51EBE70168CD589D
:1003B00045F48075CD501179D379557941EA0361BF
:1003C00093791B0443EA052319434FF4C675036868
:1003D00005EB0C1559511178D37841EA03619378F4
:1003E00052781B0443EA022211434FF4C47302689B
:1003F00003EB0C13D150006804EB0C11425842F08F
:100400000102425070BC00207047416A41F4001163
:10041000416270BC0120704790F82020012A09D069
:1004200090F82020022A05D0416A41F480214162DF
:10043000012070474148D0F8002242F00102C0F884
:100440000022D0F8002222F47C52C0F80022D0F81A
:1004500000224B6A42EA0322C0F800220A7D0123EF
:1004600003FA02F2D0F81C329343C0F81C32CB6975
:10047000D3B9D0F80C329343C0F80C32B1F80CC0A9
:100480004B686CF31F43D1F814C000EBCC0CCCF8D4
:100490004032B1F808C00B686CF31F43D1F814C0A8
:1004A00000EBCC0CCCF84432CB69012B1AD1D0F83C
:1004B0000C321343C0F80C32B1F800C04B686CF337
:1004C0001F43D1F814C000EBCC0CCCF84032B1F88B
:1004D00008C0CB686CF31F43D1F814C000EBCC0C00
:1004E000CCF844328B697BB1D0F804321343C0F8A6
:1004F00004320B6973B1D0F814321343C0F81432CC
:10050000096A01290CD010E0D0F804329343C0F8F6
:100510000432EEE7D0F814329343C0F81432EFE718
:10052000D0F81C121143C0F81C12D0F8001221F0B0
:100530000101C0F800120020704700000064004074
:10054000704710B490F820C0BCF1010F0BD090F8A8
:1005500020C0BCF1020F06D0416A41F48021416203
:1005600010BC0120704711B101290ED014E0D0F861
:1005700000C0DCF80CC01CF0030F0DD1416A41F43F
:100580000011416210BC01207047D0F800C0DCF8B7
:1005900010C01CF0030F74D04FF4D87C04680CEB2F
:1005A000011C54F80C4004F004049460002C6FD03B
:1005B000046854F80C40E4085460046854F80CC013
:1005C000CCF3400CC2F80CC04FF4DA7C04680CEB9E
:1005D000011C54F80C4004F00F041461046854F832
:1005E0000C40C4F307249461046854F80CC04FEA2B
:1005F0001C4CC2F814C04FF4DC72D0F800C002EBFF
:1006000001125CF802C083F800C0D0F800C05CF8AA
:1006100002C04FEA1C2C83F801C0D0F800C05CF87F
:1006200002C04FEA1C4C83F802C0D0F800C05CF84E
:100630000220120EDA704FF4DE72D0F800C002EB26
:1006400001125CF802C083F804C0D0F800C05CF866
:1006500002C04FEA1C2C83F805C0D0F800C05CF83B
:1006600002C04FEA1C4C83F806C0D0F800C05CF80A
:100670000220120EDA7189B1012915D019E000E0CB
:1006800006E0416A41F40011416210BC012070474C
:10069000046854F80C40640D14608EE70068C1686B
:1006A00041F02001C16004E00068016941F02001CF
:1006B000016110BC002070472DE9F05F0546002461
:1006C00028684669D0F804908768D0F80CA0D0F864
:1006D00010B0D0F8188016F0010F54D017F0010FA9
:1006E00017D00121816017F0020F03D0284600F0D7
:1006F0006BFA0EE017F0040F02D04FF4006408E02C
:1007000017F0080F02D04FF4805402E0284600F0A2
:100710005AFA17F4807F19D029684FF480708860E6
:1007200017F4007F03D0284600F050FA0EE017F4CB
:10073000806F02D044F4005408E017F4006F02D038
:1007400044F4804402E0284600F03FFA17F4803F6A
:1007500019D029684FF48030886017F4003F03D027
:10076000284600F035FA0EE017F4802F02D044F44A
:10077000004408E017F4002F02D044F4803402E073
:10078000284600F024FA16F0080F07D01AF0100FD0
:1007900004D044F4007429681020C86016F0040FD7
:1007A0004FF0080707D01AF0080F04D02868C76078
:1007B000284600F093F916F0020F07D02868C068A9
:1007C00010F0030F02D0284600F08AF916F0400F0F
:1007D00007D01BF0100F04D044F480642968102067
:1007E000086116F0200F07D01BF0080F04D028680E
:1007F0000761284600F0B2F916F0100F07D02868FC
:10080000006910F0030F02D0284600F0A8F916F492
:10081000003F08D019F0100F05D02968102048605B
:10082000284600F09DF916F4803F07D019F0080F14
:1008300004D028684760284600F0CBF916F4004F32
:100840004AD019F0040F44D016F4807F04D018F079
:10085000010F01D044F0010416F4007F04D018F019
:10086000020F01D044F0020416F4806F04D018F097
:10087000040F01D044F0040416F4006F29D018F0DE
:10088000700F26D008F07000402815D006DC102824
:1008900009D020280AD0302816D10AE050280ED0DE
:1008A000602811D10EE044F008040DE044F010047B
:1008B0000AE044F0200407E044F0400404E044F07F
:1008C000800401E044F480742868816921F070019B
:1008D0008161296804204860002C05D0686A2043A3
:1008E00068622846FFF72CFEBDE8F09F70B504460D
:1008F000002C03D094F8200010B104E0012070BD5A
:10090000204600F0A7F82068016821F0020101608C
:1009100000F0AEFA0546206840684FF0050610F07A
:10092000020F11D000F0A4FA401B0A2807D9606A10
:1009300040F40030606284F82060012070BD2068BF
:10094000406810F0020FEDD12068016841F001010C
:10095000016000F08DFA05462068406810F0010F34
:1009600011D100F085FA401B0A2807D9606A40F4CB
:100970000030606284F82060012070BD206840680B
:1009800010F0010FEDD0207E01283FD020680168D3
:1009900021F080010160607E01283DD0206801685F
:1009A00021F040010160A07E01283BD02068016851
:1009B00021F020010160E07E012839D02068016823
:1009C00041F010010160207F012837D020680168C4
:1009D00021F008010160607F012835D0206801689E
:1009E00021F004010160E168A0686269084321699F
:1009F000114308436168491E08432168C86100200B
:100A00006062012084F82000002070BD2068016829
:100A100041F080010160BEE72068016841F04001BB
:100A20000160C0E72068016841F020010160C2E771
:100A30002068016821F010010160C4E720680168A6
:100A400041F008010160C6E72068016841F0040137
:100A50000160C8E710B586B0044614216846FFF768
:100A6000F9FB1B49206888422FD11A4800210268EF
:100A700042F000720260006800F0007005901548B6
:100A80001038026842F0080202600068022200F09A
:100A9000080005900320CDE90210CDE900020920ED
:100AA000049069460C4800F0BBF800221146132060
:100AB00000F04CFA132000F03DFA002211461420F9
:100AC00000F044FA142000F035FA06B010BD000022
:100AD0000064004040380240000C024070470000B3
:100AE00000B51A4A016889B0914204D107AB6A4641
:100AF0000021FFF726FD00991548A1F205210729DD
:100B000017D20288C9B2521C01EB4103028011497D
:100B1000BDF81C2001EB830152BA8A80BDF81E206B
:100B200052BACA80BDF8202052BA0A819DF822200C
:100B30008A720188B1F5FA7F06D10021018006484A
:100B4000016881F48041016009B000BD006400408B
:100B5000080000202802002014140240704770474B
:100B6000704770B5044694F82000012805D0606AEB
:100B700040F400206062012070BD022084F8200053
:100B80002068016821F00101016000F071F905465B
:100B90002068406810F0010F12D000F069F9401B86
:100BA0000A2808D9606A40F400306062052084F8A1
:100BB0002000012070BD2068406810F0010FECD1CA
:100BC0000020606270BD7047704770477047704783
:100BD0007047704790F83510022903D08021416595
:100BE00001207047052180F835100068016821F068
:100BF000010101600020704770B5044600F038F92B
:100C00000546B4F1FF3F02D004480078044400F0E8
:100C10002FF9401BA042FAD370BD00000C00002049
:100C20002DE9F84F0022DFF82482DFF824924FF0FC
:100C3000010A4FF0030E0F270AFA02F50B682B404A
:100C4000AB427DD1D1F804C0BCF1020F02D0BCF19F
:100C5000120F12D14FEAD20C00EB8C0CDCF82060A2
:100C60005407E40E07FA04FB26EA0B06D1F810B08D
:100C70000BFA04F43443CCF8204006684FEA420CE7
:100C80000EFA0CF4A64391F804B00BF0030B0BFA28
:100C90000CFB4BEA060606604E68012E05D0022EBC
:100CA00003D0112E01D0122E11D18668A643D1F89F
:100CB0000CB00BFA0CFB4BEA06068660466826EA87
:100CC00005050E79C6F30016964035434560C568A4
:100CD00025EA04048D6805FA0CFC4CEA040CC0F803
:100CE0000CC0D1F804C01CF0805F29D0D8F800C037
:100CF0004CF4804CC8F800C0D8F800C00CF4804C0C
:100D0000CDF800C022F0030C0CF1804505F59835B4
:100D1000D5F808C89407240F07FA04F62CEA06064B
:100D2000A0F1804CBCF5003C72D0A0F1804CBCF529
:100D3000013C70D0A0F1804CBCF5023C6ED000E0CC
:100D40005DE0A0F1804CBCF5033C6AD0A0F1804C82
:100D5000BCF5043C68D0A0F1804CBCF5053C66D0E5
:100D6000A0F1804CBCF5063C64D0A0F1804CBCF5F1
:100D7000073C62D0A0F1804CBCF5083C60D0A0F1EB
:100D8000804CBCF5093C5ED04FF00A0C0CFA04FC18
:100D90004CEA060CC5F808C8D9F800C02CEA030CC8
:100DA0004C6814F4803F01D04CEA030CC9F800C031
:100DB000284CD4F800C02CEA030C4D6815F4003F11
:100DC00001D04CEA030CC4F800C0234CD4F800C096
:100DD0002CEA030C4D6815F4801F01D04CEA030C7B
:100DE000C4F800C01D4CD4F800C02CEA030C4D68B8
:100DF00015F4001F01D04CEA030CC4F800C0521CCB
:100E0000102AFFF419AFBDE8F88F01E003E005E018
:100E10004FF0000CBAE74FF0010CB7E74FF0020CAF
:100E2000B4E74FF0030CB1E74FF0040CAEE74FF01E
:100E3000050CABE74FF0060CA8E74FF0070CA5E751
:100E40004FF0080CA2E74FF0090C9FE7443802402E
:100E5000003C0140043C0140083C01400C3C014086
:100E6000002A01D081617047090481617047000048
:100E700001488068704700000C000020024881682B
:100E800002781144816070470C00002010B50B48B7
:100E9000016841F400710160016841F48061016002
:100EA000016841F480710160032000F083F80020A4
:100EB00000F006F800F026F8002010BD003C0240CB
:100EC00070B504460D4D4FF47A712878B1FBF0F0FF
:100ED0000B490968B1FBF0F000F0B2FB08B101204A
:100EE00070BD102C07D200222146501E00F02EF8B3
:100EF0006C60002070BD012070BD00000C0000205F
:100F0000040000200A4808B5016841F480410160EE
:100F1000006800F4804000900548001F016841F01F
:100F200080510160006800F08050009008BD000012
:100F30004438024000F01F01012202FA01F1400989
:100F4000800000F1E020C0F80011704710B4184B89
:100F50001B68C3F30223C3F1070CBCF1040F01D9D2
:100F60004FF0040C1C1D072C01D2002300E0DB1EF7
:100F7000012404FA0CFCACF1010C0CEA01019940CB
:100F800004FA03F35B1E1A401143002808DA00F04C
:100F90000F0000F1E020090180F8141D10BC70471B
:100FA00000F1E020090180F8001410BC7047000037
:100FB0000CED00E000F00700064A11684FF6FF0351
:100FC000194041EA002040F0FD7040F08060106060
:100FD000704700000CED00E02DE9F04704460D4697
:100FE000002C13D0DFF85091D9F80000EFB200F0D8
:100FF0000F00A8420DD289F80070D9F8000000F067
:101000000F00A84205D00120BDE8F0870120BDE80F
:10101000F0872068494E10F0020F14D010F0040F32
:1010200003D0306840F4E0503060207810F0080FB2
:1010300003D0306840F4604030603068A16820F030
:10104000F00008433060207810F0010F3ED0606857
:101050003B49012808D002280DD003280BD009688D
:1010600011F0020F28D00AE0096811F4003F06D100
:101070000120BDE8F087096811F0007F19D03168C0
:1010800021F0030108433060FFF7F2FE804630682C
:10109000616800F00C00B0EB810F17D041F2883A84
:1010A000FFF7E6FEA0EB0800504508D90320BDE895
:1010B000F0870120BDE8F0870120BDE8F0873068A7
:1010C000616800F00C00B0EB810FE9D1D9F80000A5
:1010D00000F00F00A8420AD989F80070D9F8000082
:1010E00000F00F00A84202D00120BDE8F087207870
:1010F00010F0040F05D03068E16820F4E050084398
:101100003060207810F0080F06D03068216920F494
:10111000604040EAC100306000F03EF83168094AA2
:10112000C1F30311515CC840074908600020FFF774
:10113000C7FE0020BDE8F087003C024008380240AE
:1011400000380240802800080400002001480068A0
:10115000704700000400002000B5FFF7F7FF0449C6
:101160000968044AC1F38221515CC84000BD0000F7
:10117000083802409028000800B5FFF7E7FF04494F
:101180000968044AC1F34231515CC84000BD000007
:10119000083802409028000810B51748006810F081
:1011A0000C01164816D0164B042912D0082911D16B
:1011B000144C216801F03F02216811F4800F0AD01D
:1011C0002068C0F38810A0FB03010023FFF70AF892
:1011D00009E0184610BD21680023C1F38811A1FB66
:1011E0000001FEF7FFFF2168C1F30141491C4900DE
:1011F000B0FBF1F010BD0000083802400024F400FC
:10120000001BB700043802402DE9F84F0446002CBB
:1012100010D02078FA4D10F0010F64D0F948016821
:1012200001F00C0104290DD0006800F00C00082822
:1012300003D011E00120BDE8F88FF348006810F4F6
:10124000800F09D0286810F4003F4CD06068002857
:1012500049D10120BDE8F88F6068B0F5803F14D017
:10126000B0F5A02F16D0286820F4803028602868B8
:1012700020F480202860606810B3FFF7F9FD06466F
:10128000286810F4003F0ED02DE0286840F480302C
:101290002860F0E7286840F480202860286840F43F
:1012A00080302860E7E7FFF7E3FD801B642802D960
:1012B0000320BDE8F88F286810F4003FF3D012E057
:1012C000FFF7D6FD0646286810F4003F0BD0FFF765
:1012D000CFFD801B642802D90320BDE8F88F286861
:1012E00010F4003FF3D12078C84F10F0020F4FF0F8
:1012F000000856D0C348016811F00C0F15D00068E3
:1013000000F00C00082804D1BF48006810F4800FDA
:101310000BD0E06878B301203860FFF7A9FD0646DE
:10132000286810F0020F12D01DE0286810F0020F9C
:1013300005D0E068012802D00120BDE8F88F2868B8
:10134000216920F0F80040EAC100286029E0FFF799
:101350008FFD801B022802D90320BDE8F88F286882
:1013600010F0020FF3D02868216920F0F80040EA5D
:10137000C100286015E0FFE7C7F80080FFF778FD9F
:101380000646286810F0020F0BD0FFF771FD801B96
:10139000022802D90320BDE8F88F286810F0020F58
:1013A000F3D1207810F0080F33D09948DFF8649219
:1013B0006169B9B101210160FFF75AFD0646D9F80C
:1013C000000010F0020F24D1FFF752FD801B02280D
:1013D00002D90320BDE8F88FD9F8000010F0020F01
:1013E000F2D016E0C0F80080FFF742FD0646D9F8BB
:1013F000000010F0020F0CD0FFF73AFD801B02280E
:1014000002D90320BDE8F88FD9F8000010F0020FD0
:10141000F2D1207810F0040F73D04FF00009DFF8FC
:10142000F8A1DAF8000010F0805F0CD1DAF80000C3
:1014300040F08050CAF80000DAF8000000F0805058
:1014400000904FF00109DFF8D4B1DBF8000010F490
:10145000807F1AD1DBF8000040F48070CBF80000E8
:10146000FFF706FD0646DBF8000010F4807F0CD184
:10147000FFF7FEFC801B022802D90320BDE8F88F8D
:10148000DBF8000010F4807FF2D0A068DFF890B1A4
:10149000012818D005281DD0DBF8000020F001003D
:1014A000CBF80000DBF8000020F00400CBF80000CF
:1014B000A06838B3FFF7DCFC0646DBF8000010F04C
:1014C000020F14D03CE0DBF8000040F00100CBF844
:1014D0000000EDE7DBF8000040F00400CBF800006E
:1014E000DBF8000040F00100CBF80000E0E7FFF778
:1014F000BFFC811B41F28830814204D90320BDE842
:10150000F88F26E005E0DBF8000010F0020FEED0C7
:1015100016E0FFF7ADFC0646DBF8000010F0020F06
:101520000ED0FFF7A5FC811B41F28830814202D921
:101530000320BDE8F88FDBF8000010F0020FF0D1B7
:10154000B9F1010F05D1DAF8000020F08050CAF897
:101550000000A069E8B32B49096801F00C010829D3
:101560006BD0022810D0C7F86080FFF781FC0446DA
:10157000286810F0007F5ED0FFF77AFC001B02287D
:1015800055D90320BDE8F88FC7F86080FFF770FCDD
:101590000646286810F0007F0BD0FFF769FC801B1F
:1015A000022802D90320BDE8F88F286810F0007FD8
:1015B000F3D1216AE069A26A0843616A4FF0FF3300
:1015C000890103EB520241EA0241084394F82C10CE
:1015D00000E030E040EA01610B480160012038661C
:1015E000FFF746FC0446286810F0007F23D1FFF780
:1015F0003FFC001B022815D90320BDE8F88F1CE032
:1016000000380240083802400438024000004742D7
:10161000800E47427438024040380240007000405B
:1016200070380240286810F0007FE0D003E028689E
:1016300010F0007FA0D10020DFE70120DDE70000EF
:10164000401EB0F1807F01D3012070474FF0E021B0
:101650004861044AF020107000208861072008616A
:101660000020704723ED00E090F83820012A2FD0A9
:10167000012280F83820CA680023D1F808C022F47B
:10168000407242EA0C02D1F804C022F4806242EABD
:101690000C02D1F800C022F4006242EA0C02D1F838
:1016A00010C022F4805242EA0C02D1F814C022F495
:1016B000005242EA0C02896922F480420A4322F471
:1016C000004211430268516480F8383000207047AE
:1016D0000220704710B490F83820012A2AD0012344
:1016E00080F83830022280F839200268D2F804C02D
:1016F0002CF0700CC2F804C00268D2F804C00C6868
:101700004CEA040CC2F804C00268D2F808C02CF0FD
:10171000800CC2F808C00268D2F808C049684CEAD8
:101720000101916080F83930002180F8381010BC38
:101730000020704710BC02207047000070B586B0D2
:10174000044614216846FEF785FD18492068884242
:1017500029D117480024016841F0010101600168A6
:1017600001F001010591016841F01001016000687C
:10177000022500F0100005904FF440700090CDE974
:1017800001540126CDE9034669460A48FFF748FAA5
:101790004FF4C0400090CDE90154CDE903466946BD
:1017A0000548FFF73DFA06B070BD0000000001409B
:1017B00030380240000002400010024070B504467C
:1017C0000D4694F8380001280DD0012684F83860C1
:1017D000022084F8390042B1042A1AD0082A2DD0F8
:1017E0000C2A53D13EE0022070BD2946206800F04B
:1017F000C6FB2068816941F0080181612068816928
:1018000021F004018161206881692A6911438161A5
:101810003CE02946206800F0E6FB2068816941F43D
:10182000006181612068816921F4806181612068A3
:1018300081692A6941EA0221816127E029462068FD
:1018400000F009FC2068C16941F00801C16120680D
:10185000C16921F00401C1612068C1692A6911438D
:10186000C16113E02946206800F02DFC2068C169A1
:1018700041F40061C1612068C16921F48061C161E6
:101880002068C1692A6941EA0221C16184F839608E
:10189000002084F8380070BD10B50446002C03D039
:1018A00094F8390010B107E0012010BD002084F841
:1018B0003800204600F00CF8022084F83900211D81
:1018C000206800F0EBFA012084F83900002010BDF8
:1018D00008B500680649884208D10648016841F009
:1018E00001010160006800F00100009008BD0000E7
:1018F000000001404438024010B50446012220682F
:1019000000F030FB2168A1F18040B0F5803004D0B8
:10191000A1F18040B0F5823003D1486C40F4004022
:1019200048642068016841F001010160002010BD99
:101930007047000010B5044622681068D1685269EB
:1019400000F00F03002B0AD110F0200F07D011F088
:10195000200F04D02046BDE8104000F003BC002B4F
:101960006BD002F0010301F4907C53EA0C0364D0C5
:1019700010F0010F06D011F4807F03D0E36B43F029
:101980000103E36310F0040F06D012F0010F03D03F
:10199000E36B43F00203E36310F0020F06D012F092
:1019A000010F03D0E36B43F00403E36310F0080F6F
:1019B00006D012F0010F03D0E26B42F00802E2639E
:1019C000E26B002A2ED010F0200F05D011F0200F6E
:1019D00002D0204600F0C6FB20684069C0F38010AA
:1019E000E16B11F0080F00D108B3204600F09FFB17
:1019F0002068416911F0400F15D0416921F0400184
:101A00004161606B58B118490165606BFFF7E2F8FE
:101A1000002807D0606B016DBDE8104008472046E4
:101A2000FFF786FF10BD2046FFF782FF10BD20465E
:101A3000FFF77EFF0020E06310BD10F0800F07D09D
:101A400011F0800F04D02046BDE8104000F076BDB4
:101A500010F0400FF0D011F0400FEDD02046BDE85F
:101A6000104000F072BB00001F21000870B5044652
:101A7000002C04D094F83900002510B106E00120B4
:101A800070BD84F83850204600F022F8242084F8F5
:101A900039002068C16821F40051C160204600F07F
:101AA000ABFB2068016921F4904101612068416924
:101AB00021F02A0141612068C16841F40051C160F0
:101AC000E563202084F8390084F83A00002070BDD6
:101AD00010B586B0044614216846FEF7BBFB1849D2
:101AE0002068884229D11748016841F0200101602F
:101AF000006800F02000059012481438016841F099
:101B0000400101600068694600F0400005904FF414
:101B10008440009002200190012002900320039055
:101B2000082004900848FFF77BF800221146472060
:101B3000FFF70CFA4720FFF7FDF906B010BD0000D3
:101B400000140140443802400018024070477047BA
:101B5000FEE70000104810B50E4901600321416006
:101B600000214FF400228160C0E903124FF44012BB
:101B700042610176012242768176C1760177417712
:101B8000FEF7B4FE002803D0BDE81040FEF7ADBB61
:101B900010BD000000640040840100202DE9F047E2
:101BA00086B014216846FEF755FB3B4800240168C7
:101BB00041F040010160016801F0400105910168B8
:101BC00041F008010160016801F008010591016818
:101BD00041F001010160016801F001010591016816
:101BE00041F080010160016801F080010591016808
:101BF00041F002010160016801F0020105910168F4
:101C000041F010010160016801F0100105910168C7
:101C100041F0200101600068DFF8808000F02000C2
:101C2000059000223C214046FFF71AF9DFF870903A
:101C30004FF40066002231464846FFF711F9DFF8FD
:101C400064A0F700002239465046FFF709F93C200E
:101C500000900125CDE90154694640460394FEF702
:101C6000DFFF0420CDE9000469460F480294FEF727
:101C7000D7FF0096CDE90154694648460394FEF724
:101C8000CFFF0097CDE90154694650460394FEF713
:101C9000C7FF06B0BDE8F08730380240001C0240A4
:101CA00000100240001402400004024010B590B041
:101CB00000240E941C2168460F94FEF7CBFA1C21D9
:101CC00007A8FEF7C7FA2D482B490160A721C0E9F4
:101CD000011444F62061C0E903144461FFF7DCFD00
:101CE00008B1FEF702FB0E940EA924480F94FFF7EB
:101CF000F1FC08B1FEF7F9FA602000904FF47A7019
:101D0000CDE90104039404940594002269461B481C
:101D10000694FFF753FD08B1FEF7E7FA042269467F
:101D20001648FFF74BFD08B1FEF7DFFA08226946B7
:101D30001248FFF743FD08B1FEF7D7FA0C226946B7
:101D40000E48FFF73BFD08B1FEF7CFFA0794089461
:101D500009944FF400500A94CDE90B4007A90748B5
:101D60000D94FFF781FC08B1FEF7BFFA0348FFF7B7
:101D7000E5FC10B010BD000000000140AC010020E7
:101D80000C4810B50A4901604FF4E131416000216F
:101D900081600C22C160C0E904128161C161FFF75A
:101DA00065FE002803D0BDE81040FEF79EBA10BDC6
:101DB00000140140E8010020FEE7704770477047BB
:101DC000FFF75CB830B593B030216846FEF742FAB1
:101DD00014210CA8FEF73EFA19480025016841F0CD
:101DE00080510160006800F0805011901548016832
:101DF00041F4404101600068022400F44040119029
:101E000001200090000401908001CDE906400620E9
:101E10000890A820CDE9090404200B906846FFF73C
:101E2000F3F90CA90F2081E831004FF4A0500F9076
:101E3000E002109005210CA8FFF7CEF813B030BDDA
:101E400040380240007000401048016841F47001C1
:101E500001600F48016841F0010101600C4A002156
:101E60000832116002680B4B1A400260031D0A4AD7
:101E70001A60026822F48022026005480C3001607A
:101E800002495806803908607047000088ED00E07C
:101E900000380240FFFFF6FE10300024F0B4026864
:101EA0002B4BDFF8B0C02C4D2C4E2D4C98420AD055
:101EB000B0F1804F07D0604505D0A84203D0B042B2
:101EC00001D0A04203D122F070024F683A439842F9
:101ED00028D0B0F1804F25D0604523D0A84221D032
:101EE000B0421FD0A0421DD0A0F1804CBCF5A03C58
:101EF00018D0A0F1804CBCF5A23C13D0A0F1804CCE
:101F0000BCF5A43C0ED0A0F1804CBCF5C05C09D05F
:101F1000A0F1804CBCF5E05C04D0A0F1804CBCF595
:101F2000005C05D122F44072D1F80CC04CEA0202E8
:101F300002608A68C2620A688262984201D0A04246
:101F400001D10969016301214161F0BC70470000C2
:101F5000000001400004004000080040000C004068
:101F60000004014001238B40D0F820C02CEA030379
:101F70000362036A02FA01F119430162704710B467
:101F8000026A22F001020262036A4268D0F818C0B5
:101F90002CF0700C2CF0030C0C6844EA0C0C23F0B1
:101FA00002038C682343A0F18044B4F5803404D04C
:101FB000A0F18044B4F582340DD123F00803CC683D
:101FC000234323F0040322F4807222F400724C694C
:101FD00022438C6922434260C0F818C049684163BB
:101FE000036210BC704710B4026A22F01002026251
:101FF000036A4268D0F818C02CF4E04C2CF4407C02
:102000000C684CEA042C23F020038C6843EA041388
:10201000A0F18044B4F5803404D0A0F18044B4F53C
:10202000823410D123F08003CC6843EA041323F0F8
:10203000400322F4806222F400624C6942EA840286
:102040008C6942EA84024260C0F818C04968816322
:10205000036210BC704710B4026A22F480720262FC
:10206000036A4268D0F81CC02CF0700C2CF0030CF2
:102070000C6844EA0C0C23F400738C6843EA0423D4
:10208000A0F18044B4F5803404D0A0F18044B4F5CC
:10209000823410D123F40063CC6843EA042323F490
:1020A000806322F4805222F400524C6942EA041206
:1020B0008C6942EA04124260C0F81CC04968C163DE
:1020C000036210BC704710B4026A22F480520262AC
:1020D000D0F820C04268C36923F4E04323F440737E
:1020E0000C6843EA04232CF4005C8C684CEA043C42
:1020F000A0F18044B4F5803404D0A0F18044B4F55C
:10210000823404D122F480424C6942EA8412426053
:10211000C36149680164C0F820C010BC704710B5A5
:10212000806B0021C185C184FFF702FC10BD0168EE
:10213000CA6822F49072CA6001684A6922F00102FA
:102140004A61202180F83A10704710B50168CA68CA
:1021500022F04002CA60202180F83910FFF7F7FC16
:10216000002010BD10B590F83A10222901D00220AD
:1021700010BD8168B1F5805F11D0016919B30168A4
:10218000496801F07F02816A4B1C83620A70C18D2D
:10219000491E0904090CC1851CD0002010BD816AAC
:1021A00002693AB102685268D2B20A80816A491C57
:1021B0008162ECE702685268C2F308020A80816A11
:1021C000891C8162E3E701684A68816A4B1C83626B
:1021D0000A70DCE70168CA6822F49072CA6001687C
:1021E0004A6922F001024A61202180F83A10FFF783
:1021F000ADFC002010BD00002DE9F0410446206830
:10220000016921F44051E268114301612068C1680D
:1022100021F4037121F414412369A268D4F81CC08D
:102220001A43636943EA0C031A431143C1602068EF
:10223000416921F44071A26911434161E069BC4ADE
:10224000BC49BD4D3226B0F5004F5ED020688842B3
:1022500002D0904240F01281FEF78EFF00EBC001E9
:1022600001EB001061688900B0FBF1F7FEF784FF15
:1022700000EBC00101EB001061688900B0FBF1F0D8
:10228000A5FB001040096FF01801484307EB8000E0
:1022900006EB0010A5FB0010400900F0F007FEF768
:1022A0006BFF00EBC00101EB001061688900B0FB1F
:1022B000F1F0A5FB0010400907EB0017FEF75CFFEB
:1022C00000EBC00101EB001061688900B0FBF1F880
:1022D000FEF752FF00EBC00101EB001061688900BE
:1022E000B0FBF1F0A5FB001040096FF01801484366
:1022F00008EB800006EB0010A5FB00102168C0F37E
:10230000431038448860BDE8F0812068884201D0DD
:10231000904259D1FEF730FF00EBC00101EB0010F5
:1023200061684900B0FBF1F0A5FB0010400907010E
:10233000FEF722FF00EBC00101EB001061684900CD
:10234000B0FBF1F8FEF718FF00EBC00101EB001045
:1023500061684900B0FBF1F0A5FB001040096FF087
:102360001801484308EB800006EBC000A5FB0010F5
:10237000400900F0F80007EB4007FEF7FDFE00EB18
:10238000C00101EB001061684900B0FBF1F8FEF7F5
:10239000F3FE00EBC00101EB001061684900B0FBE7
:1023A000F1F0A5FB001040096FF01801484308EB5D
:1023B000800006EBC000A5FB00102168C0F34210AE
:1023C00038448860BDE8F081FEF7C6FE00EBC0012E
:1023D00001EB001061684900B0FBF1F0A5FB0010B3
:1023E00040090701FEF7B8FE00EBC00101EB001049
:1023F00061684900B0FBF1F8FEF7AEFE00EBC001EA
:1024000001EB001061684900B0FBF1F0A5FB001082
:1024100040096FF01801484308EB800006EBC0004C
:10242000A5FB0010400900F0F80007EB4007FEF79D
:1024300093FE00EBC00101EB001061684900B0FBA6
:10244000F1F8FEF789FE00EBC00101EB00106168B6
:102450004900B0FBF1F0A5FB001040096FF0180136
:10246000484308EB800006EBC000A5FB0010216884
:10247000C0F3421038448860BDE8F081FEF76CFE7E
:1024800000EBC00101EB001061688900B0FBF1F7BF
:10249000FEF762FE00EBC00101EB001061688900ED
:1024A000B0FBF1F0A5FB001040096FF018014843A4
:1024B00007EB800006EB0010A5FB0010400900F0C0
:1024C000F007FEF749FE00EBC00101EB0010616868
:1024D0008900B0FBF1F0A5FB0010400907EB0017E5
:1024E000FEF73AFE00EBC00101EB001061688900C5
:1024F000B0FBF1F8FEF730FE00EBC00101EB00107D
:1025000061688900B0FBF1F0A5FB001040096FF095
:102510001801484308EB800006EB0010A5FB0010F3
:102520002168C0F3431038448860BDE8F0810000A2
:1025300000140140001001401F85EB5190F8391044
:10254000212901D0022070478168B1F5805F0CD04D
:10255000016A4A1C0262026809785160C18C491EF6
:102560000904090CC18410D019E0016A02680988C5
:10257000C1F308015160016919B1016A491C016286
:10258000ECE7016A891C0162E8E70168CA6822F089
:102590008002CA600068C16841F04001C16000204B
:1025A000704700000148FFF7C5B90000E8010020AE
:1025B000FEE702E008C8121F08C1002AFAD17047DE
:1025C0007047002001E001C1121F002AFBD17047B3
:1025D00000B58BB000210122CDE9061205910091D2
:1025E00001910291039104910E21CDE908216946E0
:1025F000FDF712FF0448FEF7B4FA02210248FDF786
:1026000075FE0BB000BD0000840100202DED048B91
:1026100082B0FEF73BFCFFF7D5FBFFF7BFFAFFF7F1
:1026200099FAFFF743FBFFF7ABFB01223C212E4851
:10263000FEF716FC00F0E0F82C48FFF7C9FF2C4D20
:102640009FED2C9A9FED2C8ADFED2C8A002400BF91
:1026500004EB8400F0EE491A00EBC40005EB8000A7
:10266000B0EE612AB0EE481AF0EE680AB3EE090A3D
:1026700000F0BEF8641CE4B2072CE9D31C4F204CD8
:102680000026204D34372088401C00B22080FA28D4
:1026900005D11D482680416981F400614161288A85
:1026A00000EE100AA888F8EE400A00EE100A38463C
:1026B000B8EE400A00F02AF8BDEEC00A0023194621
:1026C00010EE100A02B2EA811846009600F0AAF84D
:1026D00000231A4619460120009600F0A3F80020B6
:1026E000FEF78AFACFE70000001C024084010020B8
:1026F0001800002000A00C46CDCC4C3D000000008E
:1027000000000020280200200010024030EE601A75
:1027100080ED050AC0ED060AD0ED071A11EE101A79
:10272000304AC0ED081A9FED302A80ED071A914219
:1027300004DD70EE820A30EE600A08E0B0EE410A75
:1027400010EE101A294A914203D931EE020A80EDA7
:10275000070A90ED000AD0ED070A20EE202A80ED4E
:10276000092A90ED0A0A90ED011A01EE200A70EE96
:10277000E10A80ED0A0A90ED021A60EE811AC0EDBE
:102780000B1AD0ED030AB1EE601AB4EEC10AF1EEF5
:1027900010FA02D8B0EE410A06E0B4EEE00AF1EE1B
:1027A00010FA01DBB0EE600A80ED0A0A32EE000A90
:1027B00030EE210A80ED0C0AD0ED040AB1EE601A69
:1027C000B4EEC10AF1EE10FA02D8B0EE410A06E00A
:1027D000B4EEE00AF1EE10FA01DBB0EE600A80ED33
:1027E0000C0A704700F07F450000004600F07FC5EE
:1027F00080EC050A7047000010B500210848FFF77B
:102800007BF804210648FFF777F808210448FFF712
:1028100073F8BDE810400C210148FFF76DB80000C7
:10282000AC01002010B588B00A9C18B340F2FF201C
:10283000029000200490059008200690080A8DF868
:1028400000008DF80110100A8DF80200180A8DF8AA
:1028500004008DF80530200A8DF806008DF803205D
:102860008DF8074001236A4602A90448FDF752FD8E
:1028700008B010BD40F2FF10DAE70000840100202C
:102880000000000000000000010203040607080920
:102890000000000001020304B82800080000002026
:1028A00018000000B2250008D028000818000020F9
:1028B00068060000C2250008000000000024F400A3
:1028C00000000000010000001000000000000000F7
:04000005080001AD41
:00000001FF
