:020000040800F2
:10000000D84900200D030008A52100085B1E000848
:10001000FD200008830500086D2600080000000090
:100020000000000000000000000000004D02000879
:100030009D05000800000000A90200083523000803
:1000400027030008270300082703000827030008E8
:1000500027030008270300082703000827030008D8
:1000600027030008270300082703000827030008C8
:1000700027030008270300082703000827030008B8
:10008000270300082703000827030008910500083C
:100090008505000827030008270300082703000838
:1000A0002703000827030008270300082703000888
:1000B0002703000827030008270300082703000878
:1000C0002703000827030008270300082703000868
:1000D0002703000827030008270300082703000858
:1000E0002703000827030008270300082703000848
:1000F0002703000827030008270300082703000838
:100100002703000827030008270300082703000827
:100110002703000827030008052400082703000818
:100120002703000827030008270300082703000807
:1001300027030008270300082703000827030008F7
:1001400027030008270300082703000827030008E7
:1001500027030008270300082703000827030008D7
:1001600027030008270300082703000827030008C7
:1001700027030008270300082703000800000000E9
:1001800027030008270300082703000827030008A7
:100190002703000827030008270300082703000897
:1001A00000000000000000002703000800F002F833
:1001B00000F03CF80AA090E8000C82448344AAF1C5
:1001C0000107DA4501D100F031F8AFF2090EBAE8C3
:1001D0000F0013F0010F18BFFB1A43F0010318477B
:1001E000EC5800000C590000103A24BF78C878C1C0
:1001F000FAD8520724BF30C830C144BF04680C602D
:10020000704700000023002400250026103A28BF74
:1002100078C1FBD8520728BF30C148BF0B60704778
:100220001FB505F056FB1FBD10B510BD00F074F9E9
:100230001146FFF7F5FF03F055FC00F092F903B407
:10024000FFF7F2FF03BC00F095F900002C4B196892
:100250000868B0E8F04F80F30988BFF36F8F4FF064
:10026000000080F311887047000000000848006813
:10027000006880F308884FF0000080F3148862B6AD
:1002800061B6BFF34F8FBFF36F8F00DF00BF00BFBA
:1002900008ED00E0DFF80C00016841F47001016036
:1002A000704700BF88ED00E0EFF30980BFF36F8F68
:1002B000134B1A681EF0100F08BF20ED108A20E9BA
:1002C000F04F106009B44FF0500080F31188BFF375
:1002D0004F8FBFF36F8F04F021FB4FF0000080F3CE
:1002E000118809BC19680868B0E8F04F1EF0100FBB
:1002F00008BFB0EC108A80F30988BFF36F8F704796
:1003000030000020EFF30580704700000948804767
:1003100009480047FEE7FEE7FEE7FEE7FEE7FEE7E7
:10032000FEE7FEE7FEE7FEE704480549054A064BFF
:1003300070470000F5230008AD010008D8430020F5
:10034000D8490020D8450020D845002053EA020CA7
:1003500000F069802DE9F04B4FF00006002B1FBF25
:10036000B3FA83F503FA05F424FA05F65E4012BFEA
:100370001643B2FA82F502FA05F4C5F120051EBF54
:1003800022FA05FC44EA0C04203556EA044C4FEAF4
:10039000144418BF641C4FF000084FF0000990424D
:1003A00071EB030C39D3002919BFB1FA81F701FAB7
:1003B00007F6B0FA80F700FA07F6C7F120071EBF6C
:1003C00020FA07FC46EA0C062037B6FBF4FCA7EB44
:1003D0000507103F07F01F0BCBF120060CFA0BFBB3
:1003E0002CFA06F644BFB3460026202FA4BF5E4673
:1003F0004FF0000B5BEA060C08BF4FF0010B19EB46
:100400000B09ABFB027C48EB0608C01B06FB02CCC9
:100410000BFB03CC71EB0C01C1E70B4602464146D6
:100420004846BDE8F08B13B54FF000004FF00001D7
:10043000AFF30080BDE81C40704710B5203AC0F013
:100440000B80B1E81850203AA0E81850B1E81850D5
:10045000A0E81850BFF4F5AF5FEA027C24BFB1E812
:100460001850A0E8185044BF18C918C0BDE8104083
:100470005FEA827C24BF51F8043B40F8043B08BF8C
:100480007047D20728BF31F8023B48BF11F8012B53
:1004900028BF20F8023B48BF00F8012B70474FF0FF
:1004A000000200B5134694469646203922BFA0E8C4
:1004B0000C50A0E80C50B1F12001BFF4F7AF0907D0
:1004C00028BFA0E80C5048BF0CC05DF804EB8900C1
:1004D00028BF40F8042B08BF704748BF20F8022B04
:1004E00011F0804F18BF00F8012B7047704770471C
:1004F000704710B500F008F8006810BD10B504464C
:1005000000F002F8046010BD0048704774430020FA
:1005100000487047744300207546FFF7F9FFAE4668
:1005200005006946534620F00700854618B020B5FF
:10053000FFF7FAFEBDE820404FF000064FF000073D
:100540004FF000084FF0000B21F00701AC46ACE87B
:10055000C009ACE8C009ACE8C009ACE8C0098D46E8
:10056000704710B50446AFF300802046BDE8104048
:10057000FFF765BE01491820ABBEFEE7260002006A
:100580007047FEE7014800F07EB90000100500202A
:10059000014800F078B9000010050020704772B6DD
:1005A000FEE790F82020012A07D0022A05D0416AF0
:1005B00041F48021416201207047006842690A438A
:1005C000426100207047F0B590F820500468A4689C
:1005D000012D05D0022D03D0416A41F480214DE068
:1005E00014F0406F01D1E50045D5C4F30164012545
:1005F000A5401D608D684FF4C0739DB1CE68354332
:100600004E6845EAC605066803EB0417F5514FF43A
:10061000C275076805EB04150E697E51097D012935
:1006200005D009E00E88CD6845EA4655EBE701683C
:100630004E5946F480764E511179D2F805504FF458
:10064000C67641EA0521056806EB0416A951117822
:10065000D2F801204FF4C47541EA0221026805EB8B
:1006600004155151006803EB0411425842F0010295
:1006700042500020F0BD416A41F400114162012066
:10068000F0BD000010B590F82020012A07D0022A02
:1006900005D0416A41F480214162012010BD3B48F0
:1006A000D0F8002242F00102C0F80022D0F8002267
:1006B00022F47C52C0F80022D0F800224B6A42EAB1
:1006C0000322C0F800220A7D02F01F0301229A4093
:1006D000D0F81C329343C0F81C32CB69B3B9D0F8C0
:1006E0000C329343C0F80C328C894B6864F31F437F
:1006F0004C6900EBC404C4F840320C890B6864F305
:100700001F434C6900EBC404C4F84432CB69012B8D
:1007100016D1D0F80C321343C0F80C320C884B6859
:1007200064F31F434C6900EBC404C4F840320C89E5
:10073000CB6864F31F434C6900EBC404C4F8443233
:100740008B69002BD0F804320ED01343C0F804326A
:100750000B69002BD0F8143208D01343C0F81432C0
:10076000096A012904D008E09343EFE79343F5E7D2
:10077000D0F81C121143C0F81C12D0F8001221F05E
:100780000101C0F80012002010BD0000006400400C
:10079000704770B590F82040012C05D0022C03D092
:1007A000416A41F4802128E0046809B32469A40760
:1007B00020D04FF4D874056804EB01142D5915F0BE
:1007C0000405956005682D591AD0ED085560056837
:1007D0002C5904F00204D4604FF4DA74056804EB79
:1007E00001142E5906F00F06082E0CD308250DE033
:1007F000E468DCE7416A41F400114162012070BD08
:100800006D0D1560E3E72D5905F00F0515610568BD
:100810002D59C5F30725956105682C59240C5461A1
:100820004FF4DC72046802EB0112A4581C700468D7
:10083000A458240A5C700468A458240C9C700468B2
:10084000A258120EDA704FF4DE72046802EB011245
:10085000A4581C710468A458240A5C710468A45844
:10086000240C9C710468A258120EDA71006829B138
:10087000016941F020010161002070BDC16841F0B3
:100880002001C160F8E72DE9F05F0546006800240B
:100890004669D0F804908768D0F80CB0D0F810A062
:1008A000D0F81880F10748D0F90714D001218160F1
:1008B000B80703D5284600F026FA0CE0780702D5E1
:1008C0004FF4006407E0380702D54FF4805402E08B
:1008D000284600F017FAF80516D529684FF48070FD
:1008E0008860B80503D5284600F00FFA0CE07805BB
:1008F00002D544F4005407E0380502D544F480449E
:1009000002E0284600F000FAF80316D529684FF4F3
:1009100080308860B80303D5284600F0F8F90CE071
:10092000780302D544F4004407E0380302D544F4C8
:10093000803402E0284600F0E9F9300707D55FEA85
:10094000CB6004D52968102044F40074C860700797
:100950004FF0080707D55FEA0B7004D52868C76019
:10096000284600F05FF9B00706D52868C068800700
:1009700002D0284600F058F9700607D55FEACA6031
:1009800004D52968102044F480640861B00607D5B6
:100990005FEA0A7004D528680761284600F082F9EA
:1009A000F00606D528680069800702D0284600F0C6
:1009B0007AF9B00308D55FEAC96005D52968102027
:1009C0004860284600F070F9F00307D55FEA097027
:1009D00004D528684760284600F09AF9300446D5C7
:1009E0005FEA497040D5F00504D55FEAC87001D0D0
:1009F00044F00104B00504D55FEA887001D544F0E5
:100A00000204700504D55FEA487001D544F004047F
:100A1000300529D518F0700F26D008F07000402856
:100A200015D006DC102809D020280AD0302816D18D
:100A30000AE050280ED0602811D10EE044F00804DE
:100A40000DE044F010040AE044F0200407E044F014
:100A5000400404E044F0800401E044F48074286819
:100A6000816921F070018161296804204860002CAF
:100A700005D0686A204368622846FFF789FEBDE812
:100A8000F09F70B5040003D094F8200010B104E08A
:100A9000012070BD204600F081F82068016841F017
:100AA0000101016000F070FA0546052604E000F03F
:100AB0006BFA401B0A2811D820684068C007F6D09E
:100AC0002068016821F00201016000F05DFA05462E
:100AD0000BE000F059FA401B0A2806D9606A40F47E
:100AE0000030606284F82060D2E7206840688007A8
:100AF000EFD4207E0128206801683DD021F08001DC
:100B00000160607E01282068016838D021F0400132
:100B10000160A07E01282068016833D021F0200107
:100B20000160E07E0128206801682ED041F01001AC
:100B30000160207F01282068016829D021F0080188
:100B40000160607F01282068016824D021F0040141
:100B50000160D4E902010843D4E9041211430843B7
:100B60006168491E08432168C86100206062012055
:100B700084F82000002070BD41F08001C0E741F002
:100B80004001C5E741F02001CAE721F01001CFE79D
:100B900041F00801D4E741F00401D9E710B586B06F
:100BA000044614216846FFF77AFC1B4920688842F6
:100BB0002FD11A480021026842F0007202600068DA
:100BC00000F00070059015481038026842F00802E5
:100BD00002600068022200F0080005900320CDE9C1
:100BE0000210CDE900020920049069460C4800F08B
:100BF000A3F800220521132000F064FA132000F06E
:100C000053FA00220521142000F05CFA142000F0B1
:100C10004BFA06B010BD00000064004040380240AE
:100C2000000C02407047000000B51A4A016889B004
:100C3000914204D107AB6A460021FFF7AAFD009953
:100C40001548A1F20521072917D20288C9B2521C02
:100C500001EB410302801149BDF81C2001EB830127
:100C600052BA8A80BDF81E2052BACA80BDF8202030
:100C700052BA0A819DF822208A720188B1F5FA7F62
:100C800006D1002101800648016881F4804101609D
:100C900009B000BD00640040F8000020BC04002042
:100CA00014140240704770477047000070B5044646
:100CB00090F82000012804D0606A40F400206062AF
:100CC00018E0022084F820002068016821F001016A
:100CD000016000F059F905460EE000BF00F054F93C
:100CE000401B0A2808D9606A40F400306062052081
:100CF00084F82000012070BD20684068C007EDD155
:100D0000606270BD704770477047704770477047AA
:100D10007047000070B5044600F036F90546601CC7
:100D200002D004480078044400F02EF9401BA04291
:100D3000FAD370BD200000202DE9F84FDFF8F8A1AC
:100D40000022012403254FF00F090AF1040BAAF138
:100D5000040E00BF0B6804FA02F63340B34270D1B0
:100D60000F7907F00307012F01D0022F16D18768F2
:100D70004FEA420805FA08FC27EA0C07D1F80CC034
:100D80000CFA08FC4CEA070CC0F808C04768B743E7
:100D90000E79C6F3001696403E4346600E79F64340
:100DA000B6070AD0C7684FEA420C05FA0CF6B743FB
:100DB0008E6806FA0CF63E43C6600E7906F003060E
:100DC000022E10D1D60800EB8608D8F8206057070D
:100DD0004FEAD76C09FA0CF7BE430F6907FA0CF714
:100DE0003743C8F8207006684FEA420C05FA0CF742
:100DF000BE430F7907F0030707FA0CF73743076084
:100E00004E6816F4403F1CD04C4E376847F480477C
:100E10003760366822F0030706F480460096484E95
:100E200007EB060CDCF8086897073F0F09FA07F88C
:100E300026EA0806DFF80C81404503D14FF0000890
:100E400041E072E0DFF80081404502D14FF0010837
:100E500039E0DFF8F880404502D14FF0020832E077
:100E6000DFF8EC80404502D14FF003082BE0DFF8BB
:100E7000E480404502D14FF0040824E0DFF8D88038
:100E8000404502D14FF005081DE0DFF8D080404515
:100E900002D14FF0060816E0DFF8C480404502D1C9
:100EA0004FF007080FE0DFF8BC80404502D14FF05B
:100EB000080808E0DFF8B080404502D14FF009088B
:100EC00001E04FF00A0808FA07F848EA0608CCF8EB
:100ED0000888DAF800605746D1F804C09E435FEAFC
:100EE000CC2C00D51E433E60DBF800605F46D1F895
:100EF00004C09E435FEA8C2C00D51E433E60DEF8A2
:100F000000607746D1F804C09E435FEA8C3C00D570
:100F10001E433E60084F083F3E68D1F804C09E4320
:100F20005FEACC3C00D51E433E60521C102AFFF401
:100F300011AFBDE8F88F0000083C01404438024082
:100F4000003001400000024000040240000802405E
:100F5000000C024000100240001402400018024041
:100F6000001C02400020024000240240426921EAA5
:100F700002030A4043EA0241816170470AB181617C
:100F800070470904FBE700000148806870470000D3
:100F90002000002002488168027811448160704777
:100FA000200000200B4810B5016841F40071016079
:100FB000016841F480610160016841F48071016061
:100FC000032000F09FF80F2000F006F800F050F822
:100FD000002010BD003C024030B505461F4887B0D8
:100FE0000024016841F010010160006806A900F0CA
:100FF0001000009001A800F031F90498A8B100F0A9
:101000004DF940001649174AB0FBF1F11648491E48
:10101000026040F2E732C0E90324C0E901148461B0
:1010200000F034FD040003D015E000F037F9E9E7E3
:101030000D4800F059FD04000DD1362000F034F8C1
:10104000102D07D200222946362000F03BF8074831
:10105000056000E0012407B0204630BD4038024062
:1010600040420F0000100040D8050020240000205E
:101070000C4882B0016841F480410160006800F4CE
:10108000804000900748001F016841F080510160D6
:101090000068002200F0805000900F21901E02B0E6
:1010A00000F010B844380240002809DB00F01F02AD
:1010B000012191404009800000F1E020C0F80011BA
:1010C00070470000F0B40E4B1B680C46C3F30223BC
:1010D000C3F10705042D00D90425191D072901D2E4
:1010E000002300E0DB1E012606FA05F1491E21401F
:1010F00099409E40761E16403143F0BC01F0CFBAB5
:101100000CED00E0064900F0070208684FF6FF0307
:10111000184040EA0220034A10430860704700006C
:101120000CED00E00000FA052DE9F0470E46050041
:1011300065D0DFF81481D8F80000F7B200F00F0096
:10114000B04207D288F80070D8F8000000F00F0015
:10115000B04254D128683D4C810712D5400703D5D1
:10116000206840F4E05020602878000703D520680C
:1011700040F4604020602068A96820F0F000084337
:1011800020602878C0072DD03049686808390128C8
:1011900012D0022813D0032811D00968890700292A
:1011A0002DDA216821F0030101432160FFF7ECFEF5
:1011B000814641F2883A0EE009688903EFE7096841
:1011C0008901ECE7FFF7E0FEA0EB0901514502D9E8
:1011D0000320BDE8F0872068696800F00C00B0EBE0
:1011E000810FEFD1D8F80010404601F00F01B14255
:1011F00007D90770006800F00F00B04201D001204D
:10120000E7E72878400705D52068E96820F4E05032
:10121000084320602878000706D52068296920F453
:10122000604040EAC100206000F048F82168084AA8
:10123000C1F30311515CC8400649086006480068C4
:10124000FFF7CAFE0020C4E7003C02400838024015
:10125000745900082C000020240000200F22026096
:101260000C4A136803F003034360136803F0F003B0
:101270008360136803F4E053C36012684FF4E053D3
:1012800003EAD20202610448006800F00F0008601F
:101290007047000008380240003C024004480549FD
:1012A00000680968044AC1F38221515CC840704754
:1012B0002C0000200838024084590008154810B559
:1012C000006810F00C02144813D01449042A0FD0FF
:1012D000082A0ED10F4C241F2268236802F03F0217
:1012E0005B0207D52068C0F38810A0FB010106E06F
:1012F000084610BD2168C1F38811A1FB000100233D
:10130000FFF724F82168C1F30141491C4900B0FBF3
:10131000F1F010BD083802400024F400001BB700B3
:101320002DE9F84F04006ED02078DFF84C93C00709
:10133000A9F104054AD009F104000168C1F3810153
:10134000012908D00068C0F3810002280AD1D9F829
:101350000000400206D52868800337D56068002861
:10136000E1D033E06068B0F5803F10D0B0F5A02F39
:10137000286810D020F480302860286820F480206D
:1013800028606068A8B1FFF7FFFD06460DE02868F9
:1013900040F48030F4E740F480202860F7E700BF95
:1013A000FFF7F2FD801B642873D828688003F7D507
:1013B0000CE0FFF7E9FD064605E000BFFFF7E4FD9E
:1013C000801B6428F0D828688003F7D42078DFF8E1
:1013D000AC8280074FF0000A3ED5A748001D016887
:1013E00011F00C0F08D00068C0F3810002280BD167
:1013F000D9F80000400207D42868800716D5E068B5
:10140000012800D112E033E1E068B8B10120C8F84A
:101410000000FFF7B9FD064605E000BFFFF7B4FD89
:10142000801B0228C0D828688007F7D52868216962
:1014300020F0F80040EAC10028600DE0C8F800A0E4
:10144000FFF7A2FD064604E0FFF79EFD801B022881
:101450001FD828688007F7D42078000722D5864F48
:1014600087486169703771B101210160FFF78CFD18
:10147000064604E0FFF788FD801B022809D838687B
:101480008007F7D50EE0C0F800A0FFF77DFD064607
:1014900005E082E0FFF778FD801B02287DD83868E0
:1014A0008007F7D42078400768D5DFF8CCB1002753
:1014B0000BF13C0BDBF80000C0000BD4DBF8001094
:1014C00041F08051CBF80010DBF80000012700F05C
:1014D000805000906B4E3068C00510D4306840F4E6
:1014E00080703060FFF750FD009005E0FFF74CFD85
:1014F0000099401A022850D83068C005F6D55E4ED3
:10150000A0686C3601280FD00528306810D020F074
:1015100001003060306820F004003060A068B8B18D
:10152000FFF732FD00900FE0306840F00100F4E773
:1015300040F004003060F7E7FFF726FD0099411AFC
:1015400041F28830814266D830688007F4D50EE0D9
:10155000FFF71AFD009007E0FFF716FD0099411A0A
:1015600041F28830814256D830688007F4D42FB1D8
:10157000DBF8001021F08051CBF80010A069C8B34F
:101580003D49091D0968C1F3810102294AD0022899
:10159000504607D0C8F8600000E03CE0FFF7F4FCDC
:1015A00004463BE04746C8F86000FFF7EDFC0646FE
:1015B00005E000BFFFF7E8FC801B02282BD8286855
:1015C0008001F7D4D4E907010843A16A2E4A4908EB
:1015D00002EB0141626A41EA8211084394F82C103F
:1015E00040EA0161C9F8001001203866FFF7CCFC21
:1015F000044606E03EE000BFFFF7C6FC001B0228E1
:1016000009D828688001F7D534E000BFFFF7BCFC9B
:10161000001B022802D90320BDE8F88F286880014A
:10162000F4D427E00128F7D0D9F80000E26900F4EB
:10163000800191421CD1226A00F03F01914217D1F2
:1016400047F6C071626A0140B1EB821F10D1A26AF5
:101650004FF0FF3300F4403103EB5202B1EB024F85
:1016600006D194F82C1000F07060B0EB016F01D03F
:101670000120D1E70020CFE70438024000004742B4
:10168000800E4742007000400000FFFF70B504006C
:1016900009D0606A002540B125616561A56294F8B2
:1016A000510040B10CE0012070BD6068B0F5827F50
:1016B000F4D0E561F2E784F85050204600F044F899
:1016C000022084F851002068016821F04001016087
:1016D000A088218900F4827001F404410843A189A3
:1016E00001F400610843217C01F002010843217DDF
:1016F00001F001010843218B01F400710843217FAF
:1017000001F03801084394F8201001F080010843EB
:10171000218D01F40051084321680860A06904216B
:1017200001EA104094F8241001F0100108432168E8
:1017300048602068C16921F40061C16165650120CC
:1017400084F85100002070BD10B586B00446142105
:101750006846FEF7A4FE14492068884221D1134848
:101760000021026842F480120260006800F48010D8
:1017700005900E481438026842F0200202600068AA
:1017800000F0200005904FF4607000900220CDE939
:101790000101032003900520049069460448FFF7E7
:1017A000CBFA06B010BD00000050014044380240A2
:1017B000001402402DE9FF4F81B0044690F850001C
:1017C00000260E9F1D4693464FF0010901280FD0B9
:1017D0004FF0010A84F850A0FFF7D6FB804694F83A
:1017E0005100616801280DD0B1F5827F08D103E076
:1017F000022005B0BDE8F08FA16809B9042801D026
:101800000226C9E00298002865D0BBF1000FFBD08A
:10181000002DF9D094F85100042802D0052084F856
:10182000510000206065C4F838B0E587A5870299AB
:101830002163E586A5862064606420680168490606
:1018400003D4016841F040010160E068B0F5006F29
:10185000606803D0F0B3012D47D081E008B1012DBD
:101860003CD1206B21680088C860206B801C2063FD
:10187000E08E401EE08631E02068816889070FD540
:10188000E18E69B1B9F1010F0AD1216B0988C160FC
:10189000206B801C2063E08E401EE0864FF0000924
:1018A00020688168C9070CD0E18F51B1C068A16B75
:1018B0000880A06B801CA063E08F401EE0874FF083
:1018C0000109FFF761FBA0EB0800B84206D3781CC2
:1018D00004D001E009E05BE003265BE0E08E002835
:1018E000CAD1E08F0028C7D140E0206B2168007882
:1018F0000873206B401C2063E08E401EE0862FE0C2
:101900002068816889070FD5E18E69B1B9F1010FAF
:101910000AD1216B09780173206B401C2063E08E93
:10192000401EE0864FF0000920688168C9070CD08E
:10193000E18F51B1C068A16B0870A06B401CA0631F
:10194000E08F401EE0874FF00109FFF71DFBA0EB81
:101950000800B84202D3781C02D0BAE7002FB8D0F2
:10196000E08E0028CCD1E08F0028C9D1424639460C
:10197000204600F019FC18B10126202060650BE01C
:10198000A06818B92068C16880680090606D08B1CF
:10199000012601E084F851A0002084F85000304670
:1019A00027E77047704710B590F83C20012A22D0F5
:1019B000012280F83C20CA688C6822F440722243DD
:1019C0004C6822F4806222430C6822F400622243B5
:1019D0000C6922F4805222434C6922F400522243C3
:1019E000C969002322F480420A4301684A6480F8EE
:1019F0003C30002010BD022010BD000070B590F8F2
:101A00003C20012A32D0012480F83C40022280F898
:101A10003D2003685A689D6822F070060A683243C8
:101A20005A60134B02689A4214D0B2F1804F11D021
:101A3000104B9A420ED0104B9A420BD00F4B9A4249
:101A400008D00F4B9A4205D00E4B9A4202D00E4B53
:101A50009A4204D1496825F080031943916080F8C7
:101A60003D40002180F83C10084670BD022070BD4A
:101A7000000001400004004000080040000C00404D
:101A800000040140004001400018004010B504006F
:101A900003D094F83D0010B107E0012010BD0020F4
:101AA00084F83C00204600F01EF8022084F83D0037
:101AB000211D206800F0ACFC012084F8460084F869
:101AC0003E0084F83F0084F8400084F8410084F828
:101AD000420084F8430084F8440084F8450084F808
:101AE0003D00002010BD704790F83D10012901D045
:101AF00001207047022180F83D100168CA6842F059
:101B00000102CA6000681149884214D0B0F1804FC8
:101B100011D00F4988420ED00E4988420BD00E4991
:101B2000884208D00D49884205D00D49884202D02C
:101B30000C49884204D1816801F00701062903D0CD
:101B4000016841F001010160002070470000014080
:101B50000004004000080040000C00400004014068
:101B6000004001400018004070472DE9F041044654
:101B70000068C66805694FF00007A90713D5B107CB
:101B800011D5F91E01610120207720688069800746
:101B9000204602D0FFF7E8FF04E000F0A9F8204655
:101BA00000F04EF92777680716D5700714D521681D
:101BB0006FF004000861022020772068806910F42B
:101BC000407F204602D0FFF7CFFF04E000F090F8FE
:101BD000204600F035F92777280715D5300713D5AB
:101BE00021686FF008000861042020772068C06930
:101BF0008007204602D0FFF7B7FF04E000F078F836
:101C0000204600F01DF92777E80616D5F00614D512
:101C100021686FF010000861082020772068C069F3
:101C200010F4407F204602D0FFF79EFF04E000F052
:101C30005FF8204600F004F92777E80708D0F0079E
:101C400006D021686FF001000861204600F0FAF824
:101C5000280608D5300606D521686FF08000086197
:101C60002046FFF79EFE680608D5700606D5216857
:101C70006FF040000861204600F0EEF8A8060AD593
:101C8000B00608D521686FF0200008612046BDE845
:101C9000F041FFF787BEBDE8F081000010B586B0C7
:101CA000044614216846FEF7FAFB0E492068884274
:101CB00016D10D480021026842F01002026000684F
:101CC00000F0100005904FF4006000900220CDE974
:101CD00001010120CDE9031069460448FFF72CF803
:101CE00006B010BD00000140303802400010024034
:101CF000704770B5044690F83C0000260D46012858
:101D00000FD0012084F83C006AB1042A1DD0082AB3
:101D10002FD00C2A3FD00126002084F83C0030460A
:101D200070BD022070BD206800F0DEFB2068816974
:101D300041F0080181612068816921F0040181611D
:101D4000206881692A69114311E0206800F0FCFBDA
:101D50002068816941F4006181612068816921F412
:101D600080618161206881692A6941EA022181617B
:101D7000D2E7206800F01EFC2068C16941F008012C
:101D8000C1612068C16921F00401C1612068C16995
:101D90002A69114311E0206800F040FC2068C16905
:101DA00041F40061C1612068C16921F48061C161B1
:101DB0002068C1692A6941EA0221C161ACE710B516
:101DC000040003D094F83D0010B107E0012010BDDD
:101DD000002084F83C00204600F01EF8022084F821
:101DE0003D00211D206800F013FB012084F846000F
:101DF00084F83E0084F83F0084F8400084F84100F5
:101E000084F8420084F8430084F8440084F84500D4
:101E100084F83D00002010BD08B5006806498842DE
:101E200008D10648016841F001010160006800F036
:101E30000100009008BD000000000140443802404D
:101E40007047000000680349884201D1FFF7A2B83B
:101E500070470000001000407047FEE708B502F030
:101E60004CF8104C104D4FF07E5600900A216846F9
:101E700002F037F801F088FE01F060F901F0B4FBE0
:101E800094ED000A84ED010AD5ED0B0AC4ED000AB9
:101E900070EEC00A10EE900AB042E7DC85ED0B0A46
:101EA000E4E70000000000201043002008B502F025
:101EB00024F8064D4FF4FA7400902146684602F06B
:101EC00010F802212846FFF751F8F6E70018024003
:101ED000104810B50E4901600321416000214FF404
:101EE00000228160C0E903124FF440124261017682
:101EF000012242768176C17601774177FEF7C1FDF6
:101F0000002803D0BDE81040FEF749BB10BD00001B
:101F1000006400401005002010B58EB01C220B4953
:101F20006846FEF78AFA0021684601F0F2FF084C85
:101F300006491C22A0601C3107A8FEF77EFA00218A
:101F400007A801F0E6FFE0600EB010BDE8580008F9
:101F500000000020F0B587B014216846FEF79FFA14
:101F600029480024016841F001010160016801F085
:101F700001010591016841F008010160016801F06B
:101F800008010591016841F080010160016801F0DC
:101F900080010591016841F020010160016801F0B4
:101FA00020010591016841F040010160016801F0E4
:101FB00040010591016841F0100101600068134E75
:101FC00000F010000590002240213046FEF7D6FFB9
:101FD0000F4F002202213846FEF7D0FF402000902C
:101FE0000125CDE90154694630460394FEF7A4FE6D
:101FF00002200090CDE90154694638460394FEF76B
:102000009BFE07B0F0BD00003038024000140240D3
:10201000001802400F4810B50D4901604FF482715D
:10202000416000218160C1604FF400720161C0E92C
:102030000512C1610162416281620A21C162FFF73A
:1020400025FB002803D0BDE81040FEF7A8BA10BD5C
:10205000005001403805002010B592B000240F94C4
:102060001C2108A81094FEF71AFA20216846FEF7F2
:1020700016FA21481F490160A721C0E9011440F266
:10208000E731C0E9031444618461FFF798FE08B1A9
:10209000FEF785FA0F940FA917481094FFF7AEFCCE
:1020A00008B1FEF77CFA6020CDE908040220CDE9F2
:1020B0000A040C940D94042208A90F480E94FFF70B
:1020C00018FE08B1FEF76BFA00944FF40050CDE90A
:1020D0000440029401940394694607480794FFF76B
:1020E00062FC08B1FEF75BFA0348FFF7D7FD12B0B8
:1020F00010BD00000000014090050020FEE7000038
:102100002DED048B82B001F0F8FEDFED1D1A019079
:10211000B6EE001AB0EE612ADFED1A0AB2EE040A3A
:10212000194801F078FF194F9FED198ADFED198AE0
:102130009FED199A194D1A4C0026322101A801F081
:10214000D0FE97ED0B0A70EE080A80EEA80A20EE8A
:10215000090A85ED070AA08800EE900A0A48F8EE01
:10216000600A01F005FFBDEEC00A00231A4610EE1A
:10217000100A01B261801846009602F079F9DCE796
:1021800000A00C4600000000500300201043002077
:102190000000B4420000344300000046000000206C
:1021A000BC040020FEE70000F8B515460E460B46BD
:1021B000009204460122022100F02CF8A0B9134835
:1021C00013490068B0FBF1F04FF47A714843009076
:1021D0006068B0F5827F0DD1334600228021204611
:1021E000009500F017F870B1606D40F02000606558
:1021F0000320F8BD009830B1401E00902068806830
:10220000C0430006F6D50020F8BD00002C000020D9
:1022100000366E012DE9F8431E4691468846044675
:10222000089DFEF7B1FE401B351AFEF7ADFE0746CE
:1022300025480068C0F3CB30684338E0701C37D0C5
:10224000FEF7A2FEC01BA84203D215B1009860B3EE
:102250002CE02068416821F0E00141606068B0F541
:10226000827F0BD1A068B0F5004F02D0B0F5806F2F
:1022700004D12068016821F040010160A06AB0F536
:10228000005F09D12068016821F4005101602068D5
:10229000016841F400510160012084F851000020E0
:1022A00084F850000320BDE8F8830025401E00900C
:1022B0002068816838EA010004D000214945BDD179
:1022C0000020F0E70121F9E72C000020012001F0B7
:1022D00001FEFBE710B596B002F07EF91C2213490F
:1022E0006846FEF7AAF80021684601F012FE104C7D
:1022F0000E491C2220611C3107A8FEF79EF8002120
:1023000007A801F006FE094960611C2238310EA8B9
:10231000FEF793F800210EA801F0FBFDA061E06834
:1023200001F021FE02F078F916B010BD2059000826
:102330000000002010B5502080F31188BFF34F8FAC
:10234000BFF36F8F02F0F8FB18B104494FF08050D3
:102350000860002080F3118810BD000004ED00E04B
:1023600030B593B030216846FEF799F814210CA8D7
:10237000FEF795F81D480025016841F08051016085
:10238000006800F0805011901948016841F4404104
:1023900001600068022400F4404011900120009088
:1023A000000401908001CDE9064006200890A82095
:1023B000CDE9090404200B906846FEF7B1FF08B18F
:1023C00072B6FEE70CA90F2081E831004FF4A0504F
:1023D0000F904FF48050109005210CA8FEF7A4FE3A
:1023E000002801D072B6FEE713B030BD403802407D
:1023F000007000400248016841F4700101607047BC
:1024000088ED00E00148FFF7B0BB0000D8050020D0
:10241000F0B50268294C2A4D2A4E2B4F2B4B4FF01A
:10242000804CA04209D0604507D0A84205D0B042F8
:1024300003D0B84201D0984204D122F0700E4A680D
:1024400042EA0E02A0421BD0604519D0A84217D024
:10245000B04215D0B84213D0984211D01C4DA842BA
:102460000ED01C4DA8420BD01B4DA84208D01B4DCE
:10247000A84205D01A4DA84202D01A4DA84203D155
:1024800022F44075CA682A434D6922F080022A432B
:1024900002608A68C2620A688262A04201D09842E1
:1024A00001D109690163012141610169C90703D0B3
:1024B000016921F001010161F0BD0000000001404F
:1024C0000004004000080040000C004000040140EF
:1024D0000040014000440140004801400018004015
:1024E000001C004000200040F0B5036A026A22F0A0
:1024F0000102026242688469124E24F073050C687E
:102500002C4323F002058B682B430D4DA84201D0CC
:10251000B04205D123F00807CB683B4323F0040306
:10252000A84201D0B04205D14D6922F44072154352
:102530008A692A4342608461496841630362F0BD4D
:102540000000014000040140F0B5026A036A23F074
:1025500010030362436884690D6824F4E64444EA86
:1025600005248D6822F0200242EA05120F4D104E1C
:10257000A84201D0B04206D1CF6822F0800242EAE0
:10258000071222F04002A84201D0B04207D14D69A3
:1025900023F4406343EA85038D6943EA850343607E
:1025A0008461496881630262F0BD0000000001405F
:1025B00000040140F0B5026A036A23F480730362E9
:1025C0004368C46922F4007224F073050C68124E4B
:1025D0002C438D6842EA05220E4DA84201D0B0423C
:1025E00006D1CF6822F4006242EA072222F4806218
:1025F000A84201D0B04207D14D6923F4405343EAC9
:1026000005138D6943EA05134360C4614968C163DA
:102610000262F0BD000001400004014030B5046AD0
:10262000026A22F4805202624268C3690D6823F490
:10263000E64343EA05238D6824F4005444EA053454
:10264000084DA84202D0084DA84204D14D6922F499
:10265000804242EA85124260C361496801640462B3
:1026600030BD00000000014000040140FEE703B45B
:1026700001984100009850EAC12018BF04204A0D7B
:1026800018BF40F0010040F2FF72B2EB515F08BF8B
:1026900040F00200012808BF052002B0704709077A
:1026A000090E002804DB00F1E02080F800147047D8
:1026B00000F00F0000F1E02080F8141D70470000CA
:1026C00070B5C1482DED020B2DED0E8B82B0119D22
:1026D00025F000449FEDBEDB9FEDBFEB84423EDB67
:1026E000A4F140511098A1F17F6108430FD0BC487C
:1026F000844202DC28D1109830B39DED100B02B05B
:10270000BDEC0E8B02B0BDE8704000F0B0BC9DED9A
:10271000100B53EC1D2B51EC100B02F073FD9DEDD3
:10272000100B41EC180B53EC1E2B51EC100B02F06C
:1027300069FD53EC182B02F005FB41EC100B02B0C5
:10274000BDEC0E8B02B070BD0120FDF7D7FE02B0CC
:10275000BDEC0E8B02B0BDE8704000F09DBCA148FE
:102760009FEDA18B844256DA9DED100BB4F1795F99
:102770000ADA51EC100BFFF77AFF042808BF00F0CB
:102780009BFC9DED100BDAE753EC102B51EC100B7A
:1027900002F038FD41EC190B95480621B0EE490ACC
:1027A000F0EE690A784400F0E6FB53EC192B51EC8B
:1027B000100B02F027FD41EC1A0B8E48B0EE490ACF
:1027C000F0EE690A0421784400F0D5FB53EC192B94
:1027D00051EC100B02F016FD53EC182B02F0B2FA7C
:1027E00041EC100B51EC1A0B53EC102B02F05EFB7A
:1027F000CDE900019DED000B53EC102B9DED100B6E
:1028000051EC100B02F0FEFC9DED101B53EC112B54
:1028100002F098FAD2E09DED100B51EC100B00F095
:1028200081FC53EC182B02F021FE9FED730BCDE9D8
:10283000000153EC102B9DED000B51EC100B02F03E
:10284000E1FC41EC190B6E480621B0EE490AF0EEAE
:10285000690A784400F08FFB53EC192B51EC100BF4
:1028600002F0D0FC41EC1B0B6648B0EE490AF0EEDA
:10287000690A0421784400F07EFB53EC192B51ECDB
:10288000100B02F0BFFC53EC182B02F05BFA41EC8A
:102890001C0B51EC190B01F019FE41EC180B5A48B6
:1028A0009FED5BABA04222DC53EC1C2B51EC1B0BCD
:1028B00002F0FCFACDE900019DED000B51EC180B84
:1028C00053EC102B02F09EFC53EC182B02F03AFA5A
:1028D00053EC1A2B02F096FC53EC1D2B02F09EFEDB
:1028E00053EC1E2B02F0C2FD41EC100B5FE08DEDAE
:1028F000008B002000909DED000B51EC180B53EC69
:10290000102B02F01FFA9DED000B41EC1E0B53EC57
:10291000102B51EC100B02F075FC53EC192B02F04C
:10292000A5FD53EC1E2B02F0C1FA41EC190B53EC40
:102930001C2B51EC1B0B02F0B9FA41EC1B0B53ECB6
:102940001A2B51EC190B02F05DFC53EC1D2B02F01D
:102950008DFD41EC190B53EC1A2B51EC180B02F0C6
:1029600051FC53EC1B2B02F04DFC53EC192B02F0E5
:1029700055FE9DED000B41EC180B53EC1A2B51EC5E
:10298000100B02F03FFC9FED249B53EC192B02F03F
:102990006DFD41EC100B51EC180B53EC102B02F0B9
:1029A0003DFE53EC192B02F061FD41EC100B002DA4
:1029B0003FF7C5AE51EC100B02F086F941EC100B5D
:1029C000BDE60000000000000000F03F0000000035
:1029D000075C143326A6913C182D4454FB21F93F83
:1029E0000000F07F0000E03F000000000000F03F2A
:1029F000F831000006320000000000000000E03F57
:102A00004A310000583100003333EF3F000000002E
:102A10000000000000000040182D4454FB21E93F55
:102A200070B59B482DED020B2DED068B079D25F013
:102A30000044A04218DC9748844202DC0AD1069880
:102A400040B19DED060BBDEC068B02B0BDE87040B9
:102A500000F00DBB002DCCBF9FED8F0B9FED900BB9
:102A6000BDEC068B02B070BD8F48A04215DD8F48CB
:102A7000A042D8BF4FF0FF3458DD9DED060B51EC5E
:102A8000100BFFF7F4FD042808BF00F015FB9DEDC7
:102A9000060BBDEC068B02B070BD9DED060B51EC34
:102AA000100B00F03FFBCDE9060181489FED828BC2
:102AB000A0423CDD8248A0421FDD00249FED82AB96
:102AC0009DED060B53EC1A2B51EC100B02F03AF96A
:102AD0009DED060B41EC190B53EC1A2B51EC100B2E
:102AE00002F090FB53EC182B02F098FD53EC192BDD
:102AF00002F0DCF9CDE9060149E09DED060B012469
:102B000053EC182B51EC100B02F01CF99DED060B49
:102B100041EC190B53EC182B51EC100B02F07EFD1D
:102B200053EC192B02F0C2F9CDE906012FE06848F9
:102B3000A0421FDD02249FED689B9DED060B53EC28
:102B4000192B51EC100B02F05DFB53EC182B02F02B
:102B5000F9F89DED060B41EC180B53EC192B51ECD9
:102B6000100B02F05BFD53EC182B02F09FF9CDE93E
:102B700006010CE09DED060B032453EC102B9FED9A
:102B8000580B51EC100B02F091F9CDE906019DEDC7
:102B9000060B53EC102B51EC100B02F033FB41EC05
:102BA000180B53EC182B02F02DFB41EC190B4E487F
:102BB0000621B0EE490AF0EE690A784400F0DBF92C
:102BC00053EC182B51EC100B02F01CFB41EC180BD2
:102BD0004648B0EE490AF0EE690A0521784400F053
:102BE000CAF953EC192B51EC100B02F00BFB41EC22
:102BF000100B51EC180B53EC102B002C0EDA02F0DA
:102C0000A1F89DED061B53EC112B02F0FBFA9DED94
:102C1000061B53EC112B02F029FC35E002F092F870
:102C20009DED061B53EC112B02F0ECFA41EC100B5E
:102C30002F48784400EBC40090ED001B51EC100BC2
:102C400053EC112B02F0EAFC9DED061B53EC112B0B
:102C500002F0E4FC41EC100B2648784400EBC40081
:102C600090ED001B51EC100B53EC112B02F0FEFB0E
:102C700041EC100B002DA2BFBDEC068B02B070BD65
:102C800051EC100B02F020F841EC100B01E70000B2
:102C9000000010440000F07F182D4454FB21F93F40
:102CA000182D4454FB21F9BF0000DC3F0000203EFA
:102CB0000000F33F00000000000000000000F03FB3
:102CC0000000E63F0000000000000000000000409F
:102CD0000080034000000000000000000000F83FFA
:102CE000000000000000F0BF9A2E0000502E0000EF
:102CF000DA2D0000922D000070B56B4E2DED040B07
:102D00002DED028B82B0DDF81CC0DDE905235C42AD
:102D10002CF000411C4341EAD474049D22F0004091
:102D2000B44205D86C422C4340EAD474B4420BD967
:102D30009DED061B9DED040B02B0BDEC028B04B0B3
:102D4000BDE8704000F09DB9ACF14054A4F17F643F
:102D50001C430BD0022404EAAC7444EAD274054349
:102D60009FED538B9FED542B07D015E09DED040B89
:102D700051EC100B00F0B0F942E0002C11BF012C17
:102D80009DED040B02B0BDEC028B04BF04B070BD1E
:102D9000022C38D0032C3BD00B439FED491B9FEDF9
:102DA0004A0B0AD0B14218D1B04209D121F080417A
:102DB00020F08040079105900FE0002A15DA10E01E
:102DC000434B7B44002C08BF93ED000B0DD0012C2E
:102DD00010D0022C17D0032C1AD0B0421DD1002ADB
:102DE00003DAB0EE410AF0EE610A02B0BDEC028BEC
:102DF00004B070BD93ED000B51EC100B01F064FFBB
:102E000041EC100BF1E7B0EE480AF0EE680AECE78F
:102E1000B0EE420AF0EE620AE7E7401A00153C28DD
:102E2000C8BF8DED000B19DCBCF1000FBEBF10F167
:102E30003C0F9FED290B8DED000B0FDB9DED060B7D
:102E400053EC102B9DED040B51EC100B02F02EF8FF
:102E500000F068F900F040F9CDE90001002C08BF4E
:102E60009DED000BC1D0012C10D0022C9FED1C0B4E
:102E700053EC102B9DED000B51EC100B0DD002F01C
:102E8000CDFB53EC182B02F0C9FBB9E7019880F099
:102E9000004001909DED000BA7E702F0BFFB53EC53
:102EA000182B02F0E3FAABE70000F07F000000000F
:102EB000182D4454FB210940182D4454FB2109C00E
:102EC000182D4454FB21F9BF182D4454FB21F93F20
:102ED000C22C000000000000000000000000000004
:102EE000075C143326A6A13C2DED020B019820F0BF
:102EF000004001909DED000B02B0704700B52DED34
:102F0000048BB0EE409AF0EE609A83B051EC190B4E
:102F100002F0B8FA41EC180B18EE100A18EE901AED
:102F20008DED008B002818BF0120084320F00040E1
:102F3000C0F17F6000F1E040C00F14D019EE101A0C
:102F400019EE900A8DED009B002918BF012108435E
:102F500020F00040C0F17F6000F1E040C00F04BFEE
:102F60000120FDF7CBFAB0EE480A03B0F0EE680A94
:102F7000BDEC048B00BD70B504462DED028B4D1EDB
:102F800000EBC500B0EE408AF0EE608A90ED000BD9
:102F900035F0060017D053EC182B51EC100B02F053
:102FA00031F941EC100B6D1E04EBC50090ED001BD8
:102FB00051EC100B53EC112B01F0C4FE41EC100B43
:102FC00035F00600E7D1022D36D0042D1CD0062D99
:102FD0001CBFBDEC028B70BD53EC182B51EC100BD9
:102FE00002F010F994ED0A1B53EC112B01F0AAFE2C
:102FF00053EC182B02F006F994ED081B53EC112B3F
:1030000001F0A0FE41EC100B53EC182B51EC100B0F
:1030100002F0F8F894ED061B53EC112B01F092FE30
:1030200053EC182B02F0EEF894ED040B53EC102B3C
:1030300001F088FE41EC100B53EC182B51EC100BF7
:1030400002F0E0F894ED021B53EC112B01F07AFE34
:1030500053EC182B02F0D6F894ED001B53EC112B17
:1030600001F070FEBDEC028B41EC100B70BD10B591
:1030700053EC102B51EC100B01F064FE41EC100BE3
:1030800010BD10B553EC112B51EC100B01F05AFE92
:1030900041EC100B10BD00009FED050B10B553EC7B
:1030A000102B51EC100B01F001FF41EC100B10BD87
:1030B00000000000000000009FED050B10B553EC70
:1030C000102B51EC100B02F09DF841EC100B10BDD1
:1030D000000000000000001010B541EC100BFFF7DD
:1030E0009FFC51EC100B10BD00B58BB000210122EC
:1030F000CDE906120591009101910291039104918D
:103100000E21CDE908216946FDF7BCFA0448FDF718
:10311000CDFD02210248FDF744FA0BB000BD0000CE
:103120001005002082B0CDE9000121F0004001909F
:103130009DED000B02B051EC100B704710B5FF4C29
:10314000FF482DED108B94ED010AD4ED010A20EE1D
:1031500020FA94ED010AD4ED020A20EE20CA94ED83
:10316000010AD4ED030A60EE20BA94ED010AD4ED11
:10317000040A60EE20CA94ED020AD4ED020A20EEA1
:1031800020DA94ED020AD4ED030A20EE209A94EDA1
:10319000020AD4ED040A20EE20BA94ED030AD4ED1D
:1031A000030A60EE20AA94ED030AD4ED040A20EE8F
:1031B00020AA94ED040AD4ED040A60EE209A90ED62
:1031C000040A84ED080A90ED050A84ED090A90EDE1
:1031D000060A84ED0A0AB0F9001000EE101AB8EEE3
:1031E000C00A84ED0B0AB0F9021000EE101AB8EE16
:1031F000C00A84ED0C0AB0F9041000EE101AB8EE03
:10320000C00A84ED0D0AB0F9061000EE101AB8EEEF
:10321000C00A84ED0E0AB0F9081000EE101AB8EEDC
:10322000C00A84ED0F0AB0F90A0000EE100AB8EEE9
:10323000C00A84ED100AFDF7A7FEA064A06C616CC3
:10324000401A00EE100AB8EE400ADFEDBE0AA06C8C
:10325000C0EE208A606494ED0B0AD4ED0B0A94ED65
:103260000C1A20EE200AD4ED0C0A00EE810AD4EDEF
:103270000D0A94ED0D1A00EE810A00F05BFBD4ED0F
:103280000B0A60EE800AC4ED0B0AD4ED0C0A60EE66
:10329000800AC4ED0C0AD4ED0D0A20EE800A84EDFC
:1032A0000D0A94ED0E0AD4ED0E0A94ED0F1A20EEDD
:1032B000200AD4ED0F0A00EE810AD4ED100A94ED35
:1032C000101A00EE810A00F035FBD4ED0E0AB6EEBE
:1032D000001AB0EE008A60EE800A39EE6CEA7BEEEE
:1032E0002B1AC4ED0E0AD4ED0F0A60EE800AC4ED6D
:1032F0000F0AD4ED100A20EE800A71EE6A0A31EE50
:103300004D1A84ED100A94ED0E0A70EEE9EA31EEE2
:10331000692A20EE080A71EE6ADA60EE2E0A94ED50
:103320000F0A20EE080A40EE0E0A94ED100A20EE75
:10333000080A40EE210A94ED0E0A79EE2C1A7BEE73
:103340006BCA20EE080A60EEA00A20EE210AD4ED36
:103350000F1A61EE881A01EE820AD4ED101A3AEEC5
:103360004C2A61EE881A01EE820AD4ED0E1A3AEE6A
:103370000C2A61EE881A40EE000A21EEAC9AD4EDD8
:103380000F1A10EE900A61EE881A01EE829AD4EDBF
:10339000101A61EE881A01EEAD9A02F029FA41EC9A
:1033A000100BFFF7ABFD51EC100B01F099FC00EE98
:1033B000900A7CEE0A2A3FEE4D1A60EE880A69EE0A
:1033C000083A22EE880A31EE6A1A60EE8E1A94EDFF
:1033D000104A2CEE882A31EE293A43EEA21A7BEEEF
:1033E0008B2A20EEAE1A60EEA22AD4ED0C0A03EE70
:1033F000AC1A43EEAD2A60EE830AD4ED0D3A43EEEB
:10340000C00AD4ED0F3A63EEA23A44EE613A94ED6D
:103410000B4A70EEA30AD4ED0D3A63EE823AF5EE54
:10342000C00A44EE433A94ED103A94ED0E4A23EE6E
:10343000013A04EE623A73EE832A94ED0B3A23EEDE
:10344000000A94ED0C3A03EE420A94ED0E2A62EE65
:10345000211A94ED0F2A42EE411A30EE210AF1EEC4
:1034600010FA41D0F5EEC02AF1EE10FA3CD0B5EEDC
:10347000C00AF1EE10FA37D0D4ED051A9FED321ADA
:1034800020EE812A42EE281A22EE812AC4ED051A86
:10349000D4ED061A42EE281AC4ED061A60EE011A9F
:1034A00094ED071A01EEA81A84ED071A94ED081A94
:1034B00000EE881AD4ED050A71EE200AC4ED080A60
:1034C000D4ED090A94ED061A42EE880A70EE810ADC
:1034D000C4ED090AD4ED0A0A40EE080A94ED070A81
:1034E00030EE800A84ED0A0A94ED020AD4ED080A4F
:1034F00094ED091A94ED013A20EEC00AD4ED030AC6
:1035000000EEC10AD4ED040A94ED0A1A00EEC10AD5
:10351000D4ED080A94ED0A1A00EE283A94ED010A57
:1035200020EE200AD4ED030A00EE810AD4ED040A4D
:1035300094ED091A00EEC10A08E00000980000208E
:10354000104300200000FA440AD7233CD4ED021AAD
:10355000D4ED090A94ED0A1A40EE281A94ED010AF6
:1035600094ED032AD4ED042A20EE200AD4ED020AB9
:1035700000EEC10AD4ED040A94ED081A00EE810AA7
:10358000D4ED0A0A94ED091A00EE282A94ED010AF6
:1035900020EE200AD4ED020A00EE810AD4ED030ADF
:1035A00094ED081A00EEC10A40EE282A23EE030A21
:1035B00001EEA10A02EE020A02EEA20A00F0BAF936
:1035C00063EE000AC4ED010A61EE800AC4ED020A4E
:1035D00062EE000A22EE800AC4ED030A84ED040ABA
:1035E000BDEC108B10BD000070B5564C2DED068B58
:1035F000F8EE008AB0EE008AB7EE00AA94ED030A56
:10360000D4ED030A94ED041A20EE280A20EE200AD5
:10361000D4ED040A60EE880A00EEC10A30EE0A0A10
:1036200010EE100A02F0E4F894ED020AD4ED030A59
:1036300094ED041A20EE080A41EC190B20EE200A42
:10364000D4ED010A60EE880A00EE810A10EE100A3D
:1036500002F0CEF841EC100BB0EE491AF0EE691A08
:10366000FFF74AFB9FED389B51EC100B53EC192BE5
:1036700001F0C8FD01F034FB354D286394ED020ADA
:10368000D4ED040A94ED031A20EE280A20EE200A55
:10369000D4ED010A60EE880A00EE810A10EE100AED
:1036A00002F0A6F841EC100BFFF70AF853EC192BC7
:1036B00051EC100B01F0A6FD01F012FBE86294ED55
:1036C000020AD4ED020A94ED031A20EE280A20EE35
:1036D000200AD4ED030A60EE880A00EEC10A30EE3B
:1036E0000A0A10EE100A02F083F894ED030AD4EDF2
:1036F000040A94ED021A20EE080A41EC190B20EEA0
:10370000200AD4ED010A60EE880A00EE810A10EE6C
:10371000100A02F06DF841EC100BB0EE491AF0EE11
:10372000691AFFF7E9FA9FED0B1B51EC100B53ECF4
:10373000112B01F067FD01F0D3FAA862BDEC068BF6
:1037400070BD0000980000206666666666A64CC0E4
:10375000104300206666666666A64C40EFF305805F
:10376000002800D00120704710B559482DED0A8B74
:10377000B0F90610B0F908009FED569BDFED57BA7F
:10378000574C9FED588A9FED58BADFED58AA9FED30
:1037900058AADFED588A00294EDA9FED57CA002853
:1037A0002ADA91FBF0F001F0D9FC41EC100BFFF7A5
:1037B0009BFB53EC192B51EC100B01F021FE0AD8A6
:1037C000C4ED01BA84ED028A9FED4C0A84ED030A30
:1037D0009FED4B0A0BE09FED4B0A84ED010A9FED34
:1037E0004A0A84ED020A84ED03BA9FED480A84ED8B
:1037F000040ABDEC0A8B10BDFBDD91FBF0F001F07B
:10380000ADFC41EC100BFFF76FFB53EC192B51ECA7
:10381000100B01F0F5FD84ED01CA06D884ED028A93
:10382000C4ED03AA9FED3A0AE1E784ED02AAC4EDD4
:10383000038A9FED380ADAE7DBDD00289FED36CA00
:1038400022DD91FBF0F001F089FC41EC100BFFF759
:103850004BFB53EC192B51EC100B01F0D1FD0AD8A6
:103860009FED2E0A84ED010AC4ED02AA84ED038ABD
:10387000C4ED04BABDE79FED2A0A84ED010AC4ED48
:10388000028A84ED03AAB2E7B3DA91FBF0F001F00B
:1038900065FC41EC100BFFF727FB53EC192B51ECA7
:1038A000100B01F0ADFD84ED01CA08D89FED1D0A93
:1038B00084ED020A84ED038A9FED1B0A97E79FEDD2
:1038C0001B0A84ED02BA84ED030A9FED190A8EE704
:1038D00010430020000000000000F03F0AD7A3BB07
:1038E00098000020A8C64BBEE17A543F355E7ABFEF
:1038F00068910DBFE17A54BF0AD7A33BBE9F7A3FC0
:103900004ED111BC6F1203BC7B140EBF6F1203BBF0
:10391000A69B443C99BB16BB0AD7233B52499D3A10
:1039200099BB163B355E7A3F6F12033C295C0FBF93
:10393000BC74933B10EE100AF6EE000A074960EEE5
:10394000200AA1EB600000EE100A20EE801AF7EECC
:10395000080A41EE400A20EE800A7047DF59375FBF
:1039600006220146492000F053BA10B530216A20E2
:1039700000F086FA0A20FDF7CDF90D21242000F091
:103980007FFA0A20FDF7C6F90E21282000F078FA08
:103990000A20FDF7BFF98E21312000F071FA0A20CC
:1039A000FDF7B8F901210B2000F07BF80A20FDF7A4
:1039B000B1F9002000F059F8102801D0012010BD05
:1039C00001210B2000F06DF80A20FDF7A3F900217A
:1039D0000A2000F066F80A2000F047F808B102203B
:1039E00010BD0A20FDF796F900210B2000F059F8D0
:1039F0000B2000F03AF808B1032010BD0A20FDF7B3
:103A000089F92421412000F04CF8412000F02DF8E4
:103A1000242801D0042010BD0A20FDF77BF9C02125
:103A2000422000F03EF8422000F01FF8C02801D0EC
:103A3000052010BD0A20FDF76DF900212A2000F0B5
:103A40001FFA0A20FDF766F90021342000F018FA69
:103A50000A20FDF75FF9062203210E2000F014F979
:103A60006420FDF757F9002010BD10B50146322043
:103A700000F006FA0A20FDF74DF98021342000F00D
:103A8000FFF90A20FDF746F9352000F099F90446C0
:103A90000021342000F0F4F90A20FDF73BF920461C
:103AA00010BD70B50D46044600212A2000F0E8F94B
:103AB0000220FDF72FF92146292000F0E1F902202C
:103AC000FDF728F92946642000F0DAF90220FDF715
:103AD00021F981212A2000F0D3F9BDE870400A20A5
:103AE000FDF718B9FDF75EFAFEF73AFCFEF732FA79
:103AF000FEF7B2FAFEF7ECF9FEF78CFA0548FFF78D
:103B0000F3FA00F00FF8FFF72FFEFEF705FA00F0CA
:103B1000EFF9FEE71005002001460020842900D0BF
:103B2000C81C704730B585B06420FDF7F3F87520E8
:103B300000F046F9124900241422887011496846A1
:103B4000FCF77BFC4FEA0D0505EB4400417815F8C6
:103B5000140000F095F90120FDF7DCF8641CE4B2D4
:103B60000A2CF1D3032000F086F9022000F07EF940
:103B7000FFF7FBFE00F0D0F805B0002030BD0000DC
:103B8000980000208C59000810B50E2239493B20BE
:103B900000F03EF9374800F10E04018849BA21804F
:103BA000418849BA6180818849BAA180C18849BAEF
:103BB000A1810189628B49BA891AE1814189A28B6D
:103BC00049BA891A21828089E18B40BA401A608201
:103BD0002948FFF7C5FE2849A4F142004C399FED62
:103BE000271ACA6C8264B1F85010A0F84C10D0F8B3
:103BF00042100160D0F846104160D0F84A10816050
:103C0000B4F90C0000EE100AA4F14200F8EEC00A6C
:103C100080EE810AF3EE050A30EE200A80ED030AF9
:103C2000B4F90E1000EE101AF8EEC00A9FED140A57
:103C300080EE801ADFED130AC1EE201AC0ED041ADF
:103C4000B4F9101001EE101AF8EEC11A81EE801AC4
:103C5000C1EE201AC0ED051AB4F9121001EE101AC7
:103C6000F8EEC11A81EE801A81EE200A80ED060A74
:103C700010BD000044430020E40000205CEFA64398
:103C80006F1283413333654270B50E4604460146D8
:103C90001546282000F0F4F80220FDF73BF80A2131
:103CA000292000F0EDF80220FDF734F8012164200E
:103CB00000F0E6F80220FDF72DF844F08001252001
:103CC00000F0DEF80220FDF725F83146262000F04E
:103CD000D7F80220FDF71EF80321342000F0D0F8B9
:103CE0000220FDF717F80321672000F0C9F8022031
:103CF000FDF710F881212A2000F0C2F80620FDF718
:103D000009F845F08001272000F0BAF8BDE87040BE
:103D10000220FCF7FFBF00002DE9F041274E0027ED
:103D200006F10E044FF496750E2224493B2000F054
:103D30006FF83188A08A49BA0844A0827188E08A65
:103D400049BA0844E082B188208B49BA08442083EC
:103D50003189608B49BA084460837189A08B49BA64
:103D60000844A083B189E08B49BA0844E083052068
:103D7000FCF7D0FF7F1CAF42D6DBB4F9140090FBF8
:103D8000F5F0A082B4F9160090FBF5F0E082B4F9EA
:103D9000180090FBF5F02083B4F91A0090FBF5F0C1
:103DA0006083B4F91C0090FBF5F0A083B4F91E0009
:103DB00090FBF5F0E083BDE8F08100004443002073
:103DC000F8B5104E0446002240213046FDF7D6F8E3
:103DD00044F080000C4C3725621C20700123511EDA
:103DE0000A480095FDF7E6FC621C0123511E0748B6
:103DF0000095FDF7DFFC012240213046FDF7BEF8BB
:103E00006078F8BD001402409800002038050020BA
:103E1000F8B5134F15460E46044600224021384699
:103E2000FDF7ACF80F4944F0800037240870523198
:103E3000A1F151020870012352390B480094FDF79B
:103E4000B9FC08492B463246523107480094FDF729
:103E5000B1FC012240213846FDF790F80020F8BD62
:103E6000001402409800002038050020C006010E12
:103E70001C2000F005B8C006010E1B20AFF3008027
:103E8000F8B5114F0E460446002240213846FDF792
:103E900075F804F07F000D4C3725621C207001235B
:103EA000511E0B480095FDF785FC2670621C01230E
:103EB000511E07480095FDF77DFC01224021384640
:103EC000FDF75CF80020F8BD0014024098000020C7
:103ED0003805002010B500B9012000F01FFC0020BB
:103EE00010BD10B501B9012100F03EFC002010BD4D
:103EF00010B500F0D5FC002010BD10B5FFF72EFC6A
:103F000018B1BDE8104000F00FBEBDE8104000F051
:103F100005BE7FB50D4604464169B0F9080081B180
:103F2000A16971B1FFF7F8FDD4E905128DE807002A
:103F3000D4E900102B46226900F0C5FD039004B0BF
:103F400070BDFFF7E9FD03A9CDE90001208A2B46EA
:103F500082B2D4E9001000F089FD012801D00020D0
:103F6000EDE70398EBE710B500F044FC002010BD2E
:103F700080ED050AC0ED060A90ED071A70EE600AA2
:103F800080ED081AC0ED070A90ED000A60EE201AD5
:103F9000C0ED091A90ED0A0A90ED012A02EE200AFE
:103FA00070EEC10A80ED0A0A90ED021A20EE812A15
:103FB00080ED0B2AD0ED030AB1EE601AB4EEC10A0F
:103FC000F1EE10FA02D8B0EE410A06E0B4EEE00AD3
:103FD000F1EE10FA01DBB0EE600A80ED0A0A31EE74
:103FE000800A30EE020A80ED0C0AD0ED040AB1EE30
:103FF000601AB4EEC10AF1EE10FA02D8B0EE410A2E
:1040000006E0B4EEE00AF1EE10FA01DBB0EE600A71
:1040100080ED0C0A704780EC050A70472DE9F041ED
:10402000184C0F460546E6682068001D00F085FA2A
:1040300038B9206890F82C1001208840216981430C
:104040002161681C07D137B12168BDE8F0410E48F5
:10405000091D00F0B5BA20683544B54245602168B5
:1040600005D2A06BBDE8F041091D00F091BA606B6C
:10407000091D00F08DFAA06A854200D2A562BDE854
:10408000F081000030000020FC0600202DE9F04106
:10409000054600F0A1FA2E4CA068401CA0602068E4
:1040A0002C4F10B1606940B32DE02560A068012855
:1040B00029D1002606EB860007EB800000F05AFAB3
:1040C000761C072EF6D323488C3000F053FA214893
:1040D000A03000F04FFA1F48B43000F04BFA1D48F2
:1040E000C83000F047FA1B48DC3000F043FA1948AA
:1040F0008C3060631430A06305E02068E96AC06A10
:10410000884200D82560606A401C6062E96A01202C
:10411000226988401043206101EB810007EB800099
:10412000291D00F04DFA00F077FA606900280CD0E4
:104130002068E96AC06A884207D207494FF0805078
:104140000860BFF34F8FBFF36F8FBDE8F0810000B1
:10415000300000202006002004ED00E010B50446E9
:1041600090F8510058B101280CD002280FD05020EF
:1041700080F31188BFF34F8FBFF36F8FFEE7206B83
:1041800000F05EFA2046BDE8104000F059BA10BDBC
:1041900010484FF47051420706D0C01D0D4920F061
:1041A0000700411AC1F570510B4A00230144C2E9CE
:1041B00000030839183A21F0070111604B600B60C9
:1041C0000B1AC0E9001393604FF000405360506138
:1041D000704700001007002084000020144E154C8A
:1041E000A6F1C8074FF08058DFF84C9012E000BFEE
:1041F00000F0F2F9F068C568281D00F09EF9A0688B
:10420000401EA0606068401E606000F005FA28460D
:10421000FFF7A4FF60680028EAD138680128F9D9BF
:10422000C9F80080BFF34F8FBFF36F8FF2E7000034
:10423000E80600203000002004ED00E02DE9F04702
:104240009A46DDE9098481466FF00303206B03EB96
:1042500082021044089E20F00707780707D05020FC
:1042600080F31188BFF34F8FBFF36F8FFEE70025F8
:1042700061B1002023180A5C83F834200A5C12B173
:10428000401C1028F6D384F8435001E084F83450E1
:10429000072E00D30626E662C4E91165201D00F052
:1042A00074F904F1180000F070F92461C6F10700F8
:1042B0006462A061E56484F850505246494638462D
:1042C00000F0C0F82060B8F1000F01D0C8F800403D
:1042D000BDE8F08730B5114900E011460A68824216
:1042E000FBD34B685C18844203D140681844486093
:1042F000084643681C18944209D1084C183C2468AD
:10430000A24209D052681A4442600A6812680260E8
:10431000814200D0086030BD0460F9E784000020CD
:104320000648416B096829B1416BC968C968496889
:10433000816270474FF0FF31FAE700003000002043
:1043400008484068401C4FF0500080F3118804D0AA
:10435000BFF34F8FBFF36F8FFEE7BFF34F8FBFF3F6
:104360006F8FFEE78C0000202DE9F0410546002705
:1043700000F0CCFA324E306808B9FFF709FF7069D7
:1043800005424ED1C5B3083568070ED005F00700C9
:10439000C0F108000544680707D0502080F3118859
:1043A000BFF34F8FBFF36F8FFEE72DB37068854269
:1043B00037D82348183001460C6801E020460C46E7
:1043C0006168A94202D221680029F7D131688C4284
:1043D00027D007682168016060680837411B1029F1
:1043E0000FD96019420708D0502080F31188BFF31D
:1043F0004F8FBFF36F8FFEE713E041606560FFF7FB
:1044000069FF61687068401A7060B268904200D2BB
:10441000B060706901430020C4E90001F068401CED
:10442000F06000F0EFFB780707D0502080F3118890
:10443000BFF34F8FBFF36F8FFEE73846BDE8F081C3
:104440006C00002010B5031F4FF080741C601B1F10
:1044500021F001011960191F044B0B6014390A6027
:10446000091F6FF0020244380A6010BD4143000882
:1044700010B588B00A9C18B340F2FF2002900020CB
:104480000490059008200690080A8DF800008DF829
:104490000110100A8DF80200180A8DF804008DF83A
:1044A0000530200A8DF806008DF803208DF80740AE
:1044B00001236A4602A90448FCF785F808B010BD3C
:1044C00040F2FF10DAE700001005002000B52DEDE6
:1044D000048B83B041EC190B00F0D4FF41EC180BB6
:1044E00018EE100A18EE901A8DED008B002818BFF8
:1044F0000120084320F00040C0F17F6000F1E0405F
:10450000C00F14D019EE101A19EE900A8DED009B11
:10451000002918BF0121084320F00040C0F17F604E
:1045200000F1E040C00F04BF0120FBF7E7FF51ECB2
:10453000180B03B0BDEC048B00BDD0E9013201695A
:104540009A60D0E901235A604A68824201D18268A8
:104550004A60002202610868401E086008687047CF
:10456000034B036003F15400086080201060704723
:10457000FC00002000F108014FF0FF32C0E90112F9
:10458000C160016100210160704700210161704735
:1045900030B50B685A1C02D000F1080202E0026933
:1045A00004E02246546825689D42FAD953684B605E
:1045B00099608A60516008610168491C016030BDE2
:1045C00042684A6093688B609368596091600861A3
:1045D0000168491C01607047502080F31188BFF3C7
:1045E0004F8FBFF36F8F0A494868401C486001280D
:1045F0000CD10848006810F0FF0F07D0502080F35E
:104600001188BFF34F8FBFF36F8FFEE77047000035
:104610008C00002004ED00E00849486828B1401EE5
:10462000486001D180F311887047502080F31188D1
:10463000BFF34F8FBFF36F8FFEE700008C000020A9
:1046400070B500282AD0164DA0F108046068696989
:10465000084207D1502080F31188BFF34F8FBFF37A
:104660006F8FFEE722683AB1502080F31188BFF3C4
:104670004F8FBFF36F8FFEE78843606000F046F90D
:1046800060686968084468602046FFF723FE28696F
:10469000401C2861BDE8704000F0B4BA70BD000055
:1046A0006C0000204FF0E02000210161816105498C
:1046B0004FF47A720968B1FBF2F1491E416107219A
:1046C000016170472C00002010B5FBF71BFE11495B
:1046D00010280ED300F1E02090F8F0030A78904201
:1046E00007D2502080F31188BFF34F8FBFF36F8F35
:1046F000FEE709480068896800F4E060884207D94D
:10470000502080F31188BFF34F8FBFF36F8FFEE708
:1047100010BD00008C0000200CED00E010B5020080
:1047200014D00F48006B38B1502080F31188BFF3CC
:104730004F8FBFF36F8FFEE700F0E8F800211046BF
:10474000FFF76CFC00F05EFA002807D105494FF036
:1047500080500860BFF34F8FBFF36F8F10BD000014
:104760003000002004ED00E070B50D4604000BD0D1
:1047700095B11E4A106BB8B1502080F31188BFF379
:104780004F8FBFF36F8FFEE7502080F31188BFF388
:104790004F8FBFF36F8FFEE7502080F31188BFF378
:1047A0004F8FBFF36F8FFEE700F0B0F8D268236839
:1047B0005919934204D98B420AD9914202D807E091
:1047C0008B42FAD9881A21600021FFF727FC00E00C
:1047D000216000F017FA002807D105494FF08050FA
:1047E0000860BFF34F8FBFF36F8F70BD30000020A4
:1047F00004ED00E070B50546FFF7EEFE254C05B967
:104800002568281DFFF799FE58B9E86A224A00EB8F
:10481000800152F8211021B901218140206988438B
:104820002061A86A18B105F11800FFF786FE606ADA
:10483000401C60622068854208D11748291DC83095
:10484000FFF7BEFE6068401C606007E0A068401E85
:10485000A0602846FFF782FCFFF762FDFFF7DCFE51
:104860006069002814D02068854211D1206B38B1CE
:10487000502080F31188BFF34F8FBFF36F8FFEE797
:1048800006494FF080500860BFF34F8FBFF36F8F22
:1048900070BD0000300000202006002004ED00E084
:1048A00010B586B00024039405AA04A903A80494B3
:1048B000FFF756FEDDE903010094CDE90110002366
:1048C0000EA11048059A00F0FEF80F490028C862B2
:1048D00011D0502080F31188BFF34F8FBFF36F8F3B
:1048E0004FF0FF30886201204861CC6006B0BDE81F
:1048F000104000F041B806B010BD000049444C45DE
:1049000000000000DD410008300000200248016B7B
:10491000491C016370470000300000201448016BFF
:1049200011B10121C16170470021C1610169B1FA72
:1049300081F1C1F11F0101EB81020E4951F82230D2
:104940006BB101EB820101F108034A6852684A60C9
:104950009A4201D152684A60D16801607047502084
:1049600080F31188BFF34F8FBFF36F8FFEE7000016
:1049700030000020200600201CB537480168374A67
:10498000914207D1502080F31188BFF34F8FBFF3BE
:104990006F8FFEE700683149491E884207D15020D9
:1049A00080F31188BFF34F8FBFF36F8FFEE72C4961
:1049B00008780190FF20087008788DF800009DF8B5
:1049C00000009DF8002000F0F000904207D0502039
:1049D00080F31188BFF34F8FBFF36F8FFEE79DF811
:1049E0000000204C00F0500020700720A06005E07F
:1049F0009DF8002052008DF80020401E9DF80020F8
:104A00001206F5D4A060032807D0502080F3118847
:104A1000BFF34F8FBFF36F8FFEE74FF44070A0607E
:104A2000019808700C482030016841F47001016061
:104A3000016841F070410160FFF734FE00206060C2
:104A4000FBF728FC0848016841F040410160FBF792
:104A50000DFC00201CBD000000ED00E071C20F4104
:104A600000E400E08C00002034EF00E02DE9FF5F5F
:104A70008346DDE90E87994616468A469000FFF781
:104A800073FC05001CD05420FFF76EFC040014D00A
:104A90000020256384F85100CDE90240CDE900876C
:104AA0004B46324651465846FFF7C8FB2046FFF7B3
:104AB000EDFA012004B0BDE8F09F2846FFF7C0FDE5
:104AC0004FF0FF30F6E7F0B585B0DDE90B640A9DE5
:104AD000A6B1DCB1542700972663022684F8516002
:104AE000002604AFCDE90246CDE90057FFF7A6FB4B
:104AF0002046FFF7CBFA049805B0F0BD502080F3B4
:104B00001188BFF34F8FBFF36F8FFEE7502080F304
:104B10001188BFF34F8FBFF36F8FFEE70148C06866
:104B2000704700003000002010B5FFF7CDFD0148B0
:104B3000C06810BD300000202DE9F0412F4C002648
:104B4000206B28B1A069401CA0613046BDE8F0810F
:104B5000E5686D1CE56013D1606B006838B15020CA
:104B600080F31188BFF34F8FBFF36F8FFEE7606B49
:104B7000A16B6163A063206A401C2062FFF7D0FB39
:104B8000A06ADFF87C80854209D3606B0068A0B121
:104B9000606BC068C7687868854211D2A0622068DF
:104BA000C06A00EB800158F82100012800D90126D5
:104BB000E0690028C9D00126C7E74FF0FF30EDE7D4
:104BC000381DFFF7BAFCB86A18B107F11800FFF7F3
:104BD000B4FCF96A0120226988401043206101EB8E
:104BE000810108EB8100391DFFF7EAFCF86A2168B2
:104BF000C96A8842C9D30126C7E7000030000020F7
:104C0000200600202DE9F0472C4D00242746286B74
:104C100038B1FFF7E1FC286B401E2863286B40B1D8
:104C200046E0502080F31188BFF34F8FBFF36F8FA2
:104C3000FEE7A968224E0120D1B3A6F1B40980464F
:104C40003068E8B1F068C46804F11800FFF775FC3B
:104C5000201DFFF772FCE06A2A6908FA00F111438F
:104C6000296100EB800109EB8100211DFFF7A8FC01
:104C7000E06A2968C96A8842E2D3C5F81C80DFE788
:104C80000CB1FFF74DFBAC6944B14646FFF754FF4A
:104C900000B1EE61641EF9D10020A861E86938B165
:104CA0000849012738070860BFF34F8FBFF36F8FA4
:104CB000FFF7B2FC3846BDE8F08700003000002066
:104CC000D406002004ED00E081F00041704780F040
:104CD0000040704721F00041704720F000407047CD
:104CE00021F00042A2F16052B2F5801F01F00043B2
:104CF00028BFD2F17F6C0BD95FEA001C43EAC202E5
:104D000042EB507018BF704728BF20F00100704779
:104D1000B2F5801FBCBF184670474FEA410C1CF526
:104D2000001F02D2084600F0D9BD70B500F014FB98
:104D300000000089FFF7F6BF4FF00040A0F58000AB
:104D40007047000010B591EA030F48BF83F000439D
:104D500000F16C84841A71EB030C05D2121943EB39
:104D60000C03001B61EB0C01DFF824E14FEA115446
:104D7000A4EB135C1EEA430F18BF9EEA445F73D096
:104D800023EA0E03DCF1200E21EA045143F48013E0
:104D900032D322FA0CFE10EB0E0023FA0CFE41EB8C
:104DA0000E01CCF1200E03FA0EFE10EB0E0051F1B5
:104DB0000001B1F5801FCCF1200E32D201EB04517D
:104DC00012FA0EF2BDE8104058BF7047401C38BFC1
:104DD0005FEA420218BF7047002814BF20F00100AC
:104DE00041F100014FEA410313F5001F38BF70473E
:104DF000A1F1C04100F0FEBA012A43EB0302ACF17D
:104E0000200CDCF11F0E32BF4FF0000E23FA0CF322
:104E100010EB030041EB0451B4EB115FD0D0A1EBD8
:104E2000045101F5801149085FEA300001EB04519B
:104E30000ED350F1000038BF12FA0EFE08D1BDE8C3
:104E40001040C9E7401C38BF5FEA4202CAD1C3E73D
:104E5000BDE810404FEA410313F5001F38BF70470B
:104E6000A1F1C04100F0C6BA9EEA445F08D011EA41
:104E70005E0FBDE8104004BF01F000410020704704
:104E8000BDE8104070B500F067FA00BF64FBBE3E9D
:104E90000000E0FF491058BFC1F140415B1058BF0E
:104EA000C3F140438B42EFF3008070472DE9C041CE
:104EB00030B4DFF8A0C23CEA111418BF3CEA131466
:104EC00000F0EC8081EA03051CEA111444EAD57471
:104ED00018BF1CEA131500F0C780A4EB05044FF0BF
:104EE000004545EAC12145EAC32341EA505143EA5E
:104EF000525304F17F74994204F500344FEAC02004
:104F00004FEAC22208BF904200F09C804FEA13652E
:104F10000FF24016765D4FEA134506FB05F7C7F121
:104F2000807706FB07F74FEAD737A7FB036876427F
:104F3000C8F58038A7FB06CE38BFA8F1010807FBEB
:104F400008E64FF0000EA6FB028CE6FB03CEDCF178
:104F5000000CCEF1004E38BFAEF1010EA6FB0C588E
:104F60004FF000074FF00005E6FB0E87A1FB08C6D7
:104F7000A0FB07CE16EB0E0645F10005E1FB076529
:104F800015F1E04E7EBFA4F580345FEA46066D4120
:104F900016F1800745F100054FEA17274FEA06662C
:104FA00047EA0567A6F1DE46B6F1805F4FEA1525B0
:104FB0001FD9384624F0010C05EBC471BCF1FE6F1B
:104FC00001EB0C1102D8F0BCBDE8008124425CBFAB
:104FD00001F5801E9EEAC47F02D4F0BCBDE80081CA
:104FE000244238D4F0BCA1F1C041BDE8004100F03A
:104FF00001BA4FEAD22242EA43524FEAD323A7FB37
:1050000002864FEAD02040EA415007FB03661EEAC1
:105010000E0F4FEAD12105FB026658BFA6EB0056E2
:10502000B6EB00564FEA520E4EEAC37E18EB0E0E58
:1050300056EB530EBDD518EB02085E417F1C55F1AF
:105040000005B6E74FF480154FF000074FF000065B
:105050004FF00008ADE7F0BC4FF0000001F1C04197
:1050600001F00041BDE8008111EA0C1F0CEA1315A4
:1050700000D00CE013EA0C1F00F025804FF0000078
:10508000F0BC81EA030101F00041BDE80081F0BC01
:10509000BDE8004181EA030100F0ACB9F0BCBDE815
:1050A000004170B500F058F9097EFC3E00F007B8E9
:1050B00081EA03014FF0000001F00041704781EAEE
:1050C000030100F097B9F0BCBDE800414FF00000CB
:1050D00021497047FFFDFBF9F7F5F4F2F0EEEDEB37
:1050E000E9E8E6E4E3E1E0DEDDDBDAD8D7D5D4D3E6
:1050F000D1D0CFCDCCCBCAC8C7C6C5C4C2C1C0BF32
:10510000BEBDBCBBBAB9B8B7B6B5B4B3B2B1B0AF37
:10511000AEADACABAAA9A8A8A7A6A5A4A3A3A2A11B
:10512000A09F9F9E9D9C9C9B9A99999897979695D6
:1051300095949393929191908F8F8E8E8D8C8C8B72
:105140008B8A8989888887878685858484838382FA
:10515000828181800000FF070000F87F10F000428C
:1051600048BF4042B0FA80F310FA03F10AD0C3F10D
:105170001D0303F580634FEA415002EB035202EB3B
:10518000D12170474FF000007047000051EA030C36
:1051900017D41CF5801F58BFBCF5801F00F1068096
:1051A000994218BF704708BF9042704707D711F562
:1051B000801F58BF13F5801F19D499427047894248
:1051C00070471CF5801F08D5BCF5801FF7D58B42B2
:1051D00018BF704708BF824270474FF4001C1CEB99
:1051E000410F38BF1CEB430F01D28B42704770B5A3
:1051F00000F0B2F8922449004FF000514FF0805374
:10520000FFF748BEDFF848C170B51CEA111E1EBF8B
:105210001CEA13159EEA0C0F95EA0C0F00F06F8044
:1052200081EA030423EA4C134EEAD47E21EA4C11AE
:1052300041F4801143F48013AE44A1FB024CA0FB67
:105240000365AEF17F7E361955EB0C05A1FB034CCF
:105250004CF10003A0FB021C16EB0C06654153F158
:105260000003094218BF46F0010613F4007F0BD17A
:105270004FEA03314FEA0530340341EA155140EA61
:1052800016506FF003020AE04FEAC3214FEAC5202F
:10529000F40241EA555140EA56506FF0020202EB27
:1052A0002E4201EB025585EACE710AD05FEA440C2A
:1052B00018BF24F0004450F1000041F1000120EA41
:1052C000D47040F2FE7C624500D270BDA84214BF8B
:1052D0004FF080444FF04044002E08BF0024BEF140
:1052E000806FA8BFA1F1C041BDE8704080F282800C
:1052F0004FF0000001F1C04101F0004170479EEA0B
:105300000C0F0CEA131518BF95EA0C0F06D04FF0DE
:10531000000081EA030E0EF0004170BD00F01CF8A1
:105320008900013E00F007B800F009B84FEA430CCD
:105330005FEA5C5C08D081EA030100F05BB84FEAE9
:10534000410C5FEA5C5CF6D14FF000000149704708
:105350000000FF070000F87F0EF1020E2EF0030E92
:105360005EF8046B364205D4012A43EB030515F5BC
:10537000001F12D8012841EB010C1CF5001F0CD8AE
:105380000ED14FEAD17C15F5001F0CEB4C0C0CF143
:10539000020C08BF4CEBD37C04E04FF0080C01E09A
:1053A0004FEAD37C0CEB4C0526FA05F606F007060F
:1053B000B6F1040C06D20EEB860CBDE870404CF042
:1053C000010C6047DFE80CF0090B02024FF00041CE
:1053D0004FF00000A1F5002170BD194610460128CC
:1053E00051EB010418BFD4F5001484BF002001F074
:1053F000004170BD0808A0F500114FEA3101704767
:1054000053EA010C17D41CF5801F58BFBCF5801F50
:1054100000F106808B4218BF704708BF8242704778
:1054200007D713F5801F58BF11F5801F19D48B4281
:1054300070479B4270471CF5801F08D5BCF5801F44
:10544000F7D5994218BF704708BF904270474FF494
:10545000001C1CEB430F38BF1CEB410F01D29942DB
:1054600070470FB40CBC03BCFFF7C1BE91EA030F39
:1054700010B581F000413FF56DAC83F0004300F0C2
:10548000D5B800002DE9F04101F5801CBCF5001FE6
:10549000C0F2A9804FEA115C21EA0C510CF1FD0C1D
:1054A00041F480115FEA5C0C0CF5C07C01D3400034
:1054B000494130A4890241EA905187028E0E0A0CBC
:1054C000A45D04FB04F602FB06F6C6F14046A4FB0D
:1054D0000662F60D46EA422606FB06F4A4FB01230B
:1054E0005242C3F1404338BF5B1EA6FB0242002478
:1054F000E6FB0324D20B42EA4446A6FB0623A1FBAB
:1055000002E2A3FB07E4E3FB61426442C2F1404EC6
:1055100038BFAEF1010EA6FB04234FF00002E6FBFC
:105520000E32A2FB03463400E2FB6264A1FB06E6F6
:10553000A4FB07E8E4FB61687642C8F1405838BF35
:10554000A8F10108A2FB06E4A3FB08E5E2FB68540E
:10555000A1FB05E6A7FB04E8E1FB648618F1200542
:1055600056F10006A809A8F11B08B10908F03F0888
:10557000B8F10A0F40EA86601CD901EB0C51BDE876
:10558000F08100BFFCF5EEE8E2DDD8D3CFCBC7C396
:10559000C0BDB9B6B4B1AEACA9A7A5A3A19F9D9B50
:1055A0009A9896959392908F8D8C8B898887868513
:1055B00084838281A0FB006800FB01F208EB4208B3
:1055C000B8EB872807D5341858EB0104D5D5401C13
:1055D00051F10001D1E7341A78EB0104CDD4401E1B
:1055E00071F10001C9E75FEA4C0C5FEA9C5C0DD1E8
:1055F00005D34FF0000001F00041BDE8F081BDE8A7
:10560000F04170B5FFF7A8FE6DDBFFBEBDE8F041CD
:105610004FF00000004970470000F87F10B591EA94
:10562000030F48BF83F000433FF594AB841A71EB3E
:10563000030C07D212198CF0004C43EB0C03001B37
:1056400061EB0C01DFF8A4E14FEA1154A4EB135C09
:105650001EEA430F18BF9EEA445F00F0B08023EAC1
:105660006E03524221EA0451C3EB6E0338BF5B1E46
:10567000DCF1200E25D322FA0CFE10EB0E0043FACB
:105680000CFE41EB0E01CCF1200E03FA0EFE10EBE6
:105690000E0051F10001CCF1200E29D412FA0EF2C5
:1056A00001EB0451BDE8104058BF7047401C1CBFBF
:1056B000B2F1004F704700280CBF491C20F00100D8
:1056C000704712EB020E43EB030218BF4FF0010EBE
:1056D0004EEA4202ACF1200CDCF11E0E54D943FA22
:1056E0000CFE10EB0E0051F1FF31CCF11E0ED5D5A2
:1056F0000EF1010E12FA0EFE404141EB010101EBE9
:10570000445C5FEA5C5C10D910EBDE7001EB045185
:1057100038BFBEF1004FBDE8104018BF70470028E9
:105720000CBF491C20F00100704730D24FEAD42C46
:1057300011F5001124F400641BD0B1FA81F20B3A88
:10574000A41AA41ED2F12003914030FA03F31943A6
:10575000904001EBCC71002C01EB0451BDE81040EE
:10576000A8BF704701F1C0414FF0000001F00041B7
:105770007047B0FA80F310FA03F100D110BDE41ABB
:10578000173C4805C90AE4E701EB045110BD491074
:1057900001EB0451BDE810404FEA300002E04FF049
:1057A000000170474A0008BF0042F8D0B2F5001F60
:1057B00028BF704701F000414FF0000070479EEA9B
:1057C000445F07D011EA5E0FBDE8104004BF00211E
:1057D00000207047BDE8104070B5FFF7BDFD00BF69
:1057E00040DFF63E83F00041104670470000E0FFC6
:1057F00043004FEAD30C4FEA3C0C43401FBF400725
:105800000CF1605113F0FE4F70471CF0006F03D194
:1058100000200CF0004170470CF0004343EA507048
:1058200010B540EACC0000F00EF800BF0000009276
:105830004FEA0001FFF7DEBD4FF000414FF00000DE
:10584000A1F5002170470EF1020E2EF0030E5EF856
:10585000044B244204D44FEA4102B2F17F4F11D8E5
:105860004FEA4003B3F17F4F0CD80ED14FEAD07C02
:10587000B2F17F4F0CEB4C0C0CF1020C08BF4CEB5F
:10588000D17C04E04FF0080C01E04FEAD17C0CEB36
:105890004C0324FA03F404F00704B4F1040C06D218
:1058A0000EEB840CBDE810404CF0010C6047DFE8C3
:1058B0000CF0070802024FF00040A0F5800010BD78
:1058C0000846420018BFD2F1807288BF00F0004045
:1058D00010BD4FF04070E1EE100A7047FF2141EA21
:1058E000D050C00570470000B45A0008CD2200080F
:1058F0000000000000000000800000000000000028
:1059000000000000C05A0008D52200080300000073
:105910000000000080000000000000000000000007
:10592000985A0008AD1E00080000000000000000AA
:10593000800000000000000000000000905A0008F5
:105940005D1E000800000000000000008000000054
:105950000000000000000000A85A00080121000813
:1059600000000000000000008000000000000000B7
:10597000000000000000000000000000010203041D
:105980000607080900000000010203046B806B0396
:105990006C001A041B181C101D026A200000000075
:1059A000555555555555C53F7D6FEB0312D6D4BFA0
:1059B0005544880E55C1C93F3B8F68B52882A4BFA6
:1059C00088B20175E0EF493F09F7FD0DE13D023F67
:1059D0004B2D8A1C273A03C0C88A599CE52A0040EF
:1059E00059018D1B6C06E6BF82922EB1C5B8B33F3C
:1059F0004FBB610567ACDD3F182D4454FB21E93FE7
:105A00009BF681D20B73EF3F182D4454FB21F93FD5
:105A1000E2652F227F2B7A3C075C143326A6813C5B
:105A2000BDCBF07A8807703C075C143326A6913C06
:105A3000C4EB98999999C9BF711623FEC671BCBF72
:105A40006D9A74AFF2B0B3BF9AFDDE522DDEADBFDA
:105A50002F6C6A2C44B4A2BF0D5555555555D53FF2
:105A6000FF8300922449C23F6E204CC5CD45B73F0D
:105A7000513DD0A0660DB13FEB0D76244B7BA93F85
:105A800011DA22E33AAD903F000000000000000070
:105A9000494D555461736B004C4544426C696E6BC3
:105AA0005461736B000000004D6F746F725461732A
:105AB0006B00000064656661756C745461736B0003
:105AC00053746172745461736B000000EC5A0008E7
:105AD00000000020FC000000E8010008E85B00086E
